ARM GAS  C:\Users\dmarsch\AppData\Local\Temp\ccdxDVrh.s 			page 1


   1              		.syntax unified
   2              		.cpu cortex-m3
   3              		.fpu softvfp
   4              		.eabi_attribute 20, 1
   5              		.eabi_attribute 21, 1
   6              		.eabi_attribute 23, 3
   7              		.eabi_attribute 24, 1
   8              		.eabi_attribute 25, 1
   9              		.eabi_attribute 26, 1
  10              		.eabi_attribute 30, 1
  11              		.eabi_attribute 34, 1
  12              		.eabi_attribute 18, 4
  13              		.thumb
  14              		.syntax unified
  15              		.file	"cyfitter_cfg.c"
  16              		.text
  17              	.Ltext0:
  18              		.cfi_sections	.debug_frame
  19              		.section	.text.CyClockStartupError,"ax",%progbits
  20              		.align	2
  21              		.thumb
  22              		.thumb_func
  23              		.type	CyClockStartupError, %function
  24              	CyClockStartupError:
  25              	.LFB3:
  26              		.file 1 "Generated_Source\\PSoC5\\cyfitter_cfg.c"
   1:Generated_Source\PSoC5/cyfitter_cfg.c **** 
   2:Generated_Source\PSoC5/cyfitter_cfg.c **** /*******************************************************************************
   3:Generated_Source\PSoC5/cyfitter_cfg.c **** * File Name: cyfitter_cfg.c
   4:Generated_Source\PSoC5/cyfitter_cfg.c **** * 
   5:Generated_Source\PSoC5/cyfitter_cfg.c **** * PSoC Creator  4.2
   6:Generated_Source\PSoC5/cyfitter_cfg.c **** *
   7:Generated_Source\PSoC5/cyfitter_cfg.c **** * Description:
   8:Generated_Source\PSoC5/cyfitter_cfg.c **** * This file contains device initialization code.
   9:Generated_Source\PSoC5/cyfitter_cfg.c **** * Except for the user defined sections in CyClockStartupError(), this file should not be modified.
  10:Generated_Source\PSoC5/cyfitter_cfg.c **** * This file is automatically generated by PSoC Creator.
  11:Generated_Source\PSoC5/cyfitter_cfg.c **** *
  12:Generated_Source\PSoC5/cyfitter_cfg.c **** ********************************************************************************
  13:Generated_Source\PSoC5/cyfitter_cfg.c **** * Copyright (c) 2007-2018 Cypress Semiconductor.  All rights reserved.
  14:Generated_Source\PSoC5/cyfitter_cfg.c **** * You may use this file only in accordance with the license, terms, conditions, 
  15:Generated_Source\PSoC5/cyfitter_cfg.c **** * disclaimers, and limitations in the end user license agreement accompanying 
  16:Generated_Source\PSoC5/cyfitter_cfg.c **** * the software package with which this file was provided.
  17:Generated_Source\PSoC5/cyfitter_cfg.c **** ********************************************************************************/
  18:Generated_Source\PSoC5/cyfitter_cfg.c **** 
  19:Generated_Source\PSoC5/cyfitter_cfg.c **** #include <string.h>
  20:Generated_Source\PSoC5/cyfitter_cfg.c **** #include "cytypes.h"
  21:Generated_Source\PSoC5/cyfitter_cfg.c **** #include "cydevice_trm.h"
  22:Generated_Source\PSoC5/cyfitter_cfg.c **** #include "cyfitter.h"
  23:Generated_Source\PSoC5/cyfitter_cfg.c **** #include "CyLib.h"
  24:Generated_Source\PSoC5/cyfitter_cfg.c **** #include "cyfitter_cfg.h"
  25:Generated_Source\PSoC5/cyfitter_cfg.c **** #include "cyapicallbacks.h"
  26:Generated_Source\PSoC5/cyfitter_cfg.c **** 
  27:Generated_Source\PSoC5/cyfitter_cfg.c **** #define CY_NEED_CYCLOCKSTARTUPERROR 1
  28:Generated_Source\PSoC5/cyfitter_cfg.c **** 
  29:Generated_Source\PSoC5/cyfitter_cfg.c **** 
  30:Generated_Source\PSoC5/cyfitter_cfg.c **** #if defined(__GNUC__) || defined(__ARMCC_VERSION)
  31:Generated_Source\PSoC5/cyfitter_cfg.c ****     #define CYPACKED 
ARM GAS  C:\Users\dmarsch\AppData\Local\Temp\ccdxDVrh.s 			page 2


  32:Generated_Source\PSoC5/cyfitter_cfg.c ****     #define CYPACKED_ATTR __attribute__ ((packed))
  33:Generated_Source\PSoC5/cyfitter_cfg.c ****     #define CYALIGNED __attribute__ ((aligned))
  34:Generated_Source\PSoC5/cyfitter_cfg.c ****     #define CY_CFG_UNUSED __attribute__ ((unused))
  35:Generated_Source\PSoC5/cyfitter_cfg.c ****     #ifndef CY_CFG_SECTION
  36:Generated_Source\PSoC5/cyfitter_cfg.c ****         #define CY_CFG_SECTION __attribute__ ((section(".psocinit")))
  37:Generated_Source\PSoC5/cyfitter_cfg.c ****     #endif
  38:Generated_Source\PSoC5/cyfitter_cfg.c ****     
  39:Generated_Source\PSoC5/cyfitter_cfg.c ****     #if defined(__ARMCC_VERSION)
  40:Generated_Source\PSoC5/cyfitter_cfg.c ****         #define CY_CFG_MEMORY_BARRIER() __memory_changed()
  41:Generated_Source\PSoC5/cyfitter_cfg.c ****     #else
  42:Generated_Source\PSoC5/cyfitter_cfg.c ****         #define CY_CFG_MEMORY_BARRIER() __sync_synchronize()
  43:Generated_Source\PSoC5/cyfitter_cfg.c ****     #endif
  44:Generated_Source\PSoC5/cyfitter_cfg.c ****     
  45:Generated_Source\PSoC5/cyfitter_cfg.c **** #elif defined(__ICCARM__)
  46:Generated_Source\PSoC5/cyfitter_cfg.c ****     #include <intrinsics.h>
  47:Generated_Source\PSoC5/cyfitter_cfg.c **** 
  48:Generated_Source\PSoC5/cyfitter_cfg.c ****     #define CYPACKED __packed
  49:Generated_Source\PSoC5/cyfitter_cfg.c ****     #define CYPACKED_ATTR 
  50:Generated_Source\PSoC5/cyfitter_cfg.c ****     #define CYALIGNED _Pragma("data_alignment=4")
  51:Generated_Source\PSoC5/cyfitter_cfg.c ****     #define CY_CFG_UNUSED _Pragma("diag_suppress=Pe177")
  52:Generated_Source\PSoC5/cyfitter_cfg.c ****     #define CY_CFG_SECTION _Pragma("location=\".psocinit\"")
  53:Generated_Source\PSoC5/cyfitter_cfg.c ****     
  54:Generated_Source\PSoC5/cyfitter_cfg.c ****     #define CY_CFG_MEMORY_BARRIER() __DMB()
  55:Generated_Source\PSoC5/cyfitter_cfg.c ****     
  56:Generated_Source\PSoC5/cyfitter_cfg.c **** #else
  57:Generated_Source\PSoC5/cyfitter_cfg.c ****     #error Unsupported toolchain
  58:Generated_Source\PSoC5/cyfitter_cfg.c **** #endif
  59:Generated_Source\PSoC5/cyfitter_cfg.c **** 
  60:Generated_Source\PSoC5/cyfitter_cfg.c **** #ifndef CYCODE
  61:Generated_Source\PSoC5/cyfitter_cfg.c ****     #define CYCODE
  62:Generated_Source\PSoC5/cyfitter_cfg.c **** #endif
  63:Generated_Source\PSoC5/cyfitter_cfg.c **** #ifndef CYDATA
  64:Generated_Source\PSoC5/cyfitter_cfg.c ****     #define CYDATA
  65:Generated_Source\PSoC5/cyfitter_cfg.c **** #endif
  66:Generated_Source\PSoC5/cyfitter_cfg.c **** #ifndef CYFAR
  67:Generated_Source\PSoC5/cyfitter_cfg.c ****     #define CYFAR
  68:Generated_Source\PSoC5/cyfitter_cfg.c **** #endif
  69:Generated_Source\PSoC5/cyfitter_cfg.c **** #ifndef CYXDATA
  70:Generated_Source\PSoC5/cyfitter_cfg.c ****     #define CYXDATA
  71:Generated_Source\PSoC5/cyfitter_cfg.c **** #endif
  72:Generated_Source\PSoC5/cyfitter_cfg.c **** 
  73:Generated_Source\PSoC5/cyfitter_cfg.c **** 
  74:Generated_Source\PSoC5/cyfitter_cfg.c **** CY_CFG_UNUSED
  75:Generated_Source\PSoC5/cyfitter_cfg.c **** static void CYMEMZERO(void *s, size_t n);
  76:Generated_Source\PSoC5/cyfitter_cfg.c **** CY_CFG_UNUSED
  77:Generated_Source\PSoC5/cyfitter_cfg.c **** static void CYMEMZERO(void *s, size_t n)
  78:Generated_Source\PSoC5/cyfitter_cfg.c **** {
  79:Generated_Source\PSoC5/cyfitter_cfg.c **** 	(void)memset(s, 0, n);
  80:Generated_Source\PSoC5/cyfitter_cfg.c **** }
  81:Generated_Source\PSoC5/cyfitter_cfg.c **** CY_CFG_UNUSED
  82:Generated_Source\PSoC5/cyfitter_cfg.c **** static void CYCONFIGCPY(void *dest, const void *src, size_t n);
  83:Generated_Source\PSoC5/cyfitter_cfg.c **** CY_CFG_UNUSED
  84:Generated_Source\PSoC5/cyfitter_cfg.c **** static void CYCONFIGCPY(void *dest, const void *src, size_t n)
  85:Generated_Source\PSoC5/cyfitter_cfg.c **** {
  86:Generated_Source\PSoC5/cyfitter_cfg.c **** 	(void)memcpy(dest, src, n);
  87:Generated_Source\PSoC5/cyfitter_cfg.c **** }
  88:Generated_Source\PSoC5/cyfitter_cfg.c **** CY_CFG_UNUSED
ARM GAS  C:\Users\dmarsch\AppData\Local\Temp\ccdxDVrh.s 			page 3


  89:Generated_Source\PSoC5/cyfitter_cfg.c **** static void CYCONFIGCPYCODE(void *dest, const void *src, size_t n);
  90:Generated_Source\PSoC5/cyfitter_cfg.c **** CY_CFG_UNUSED
  91:Generated_Source\PSoC5/cyfitter_cfg.c **** static void CYCONFIGCPYCODE(void *dest, const void *src, size_t n)
  92:Generated_Source\PSoC5/cyfitter_cfg.c **** {
  93:Generated_Source\PSoC5/cyfitter_cfg.c **** 	(void)memcpy(dest, src, n);
  94:Generated_Source\PSoC5/cyfitter_cfg.c **** }
  95:Generated_Source\PSoC5/cyfitter_cfg.c **** 
  96:Generated_Source\PSoC5/cyfitter_cfg.c **** 
  97:Generated_Source\PSoC5/cyfitter_cfg.c **** 
  98:Generated_Source\PSoC5/cyfitter_cfg.c **** 
  99:Generated_Source\PSoC5/cyfitter_cfg.c **** /* Clock startup error codes                                                   */
 100:Generated_Source\PSoC5/cyfitter_cfg.c **** #define CYCLOCKSTART_NO_ERROR    0u
 101:Generated_Source\PSoC5/cyfitter_cfg.c **** #define CYCLOCKSTART_XTAL_ERROR  1u
 102:Generated_Source\PSoC5/cyfitter_cfg.c **** #define CYCLOCKSTART_32KHZ_ERROR 2u
 103:Generated_Source\PSoC5/cyfitter_cfg.c **** #define CYCLOCKSTART_PLL_ERROR   3u
 104:Generated_Source\PSoC5/cyfitter_cfg.c **** #define CYCLOCKSTART_FLL_ERROR   4u
 105:Generated_Source\PSoC5/cyfitter_cfg.c **** #define CYCLOCKSTART_WCO_ERROR   5u
 106:Generated_Source\PSoC5/cyfitter_cfg.c **** 
 107:Generated_Source\PSoC5/cyfitter_cfg.c **** 
 108:Generated_Source\PSoC5/cyfitter_cfg.c **** #ifdef CY_NEED_CYCLOCKSTARTUPERROR
 109:Generated_Source\PSoC5/cyfitter_cfg.c **** /*******************************************************************************
 110:Generated_Source\PSoC5/cyfitter_cfg.c **** * Function Name: CyClockStartupError
 111:Generated_Source\PSoC5/cyfitter_cfg.c **** ********************************************************************************
 112:Generated_Source\PSoC5/cyfitter_cfg.c **** * Summary:
 113:Generated_Source\PSoC5/cyfitter_cfg.c **** *  If an error is encountered during clock configuration (crystal startup error,
 114:Generated_Source\PSoC5/cyfitter_cfg.c **** *  PLL lock error, etc.), the system will end up here.  Unless reimplemented by
 115:Generated_Source\PSoC5/cyfitter_cfg.c **** *  the customer, this function will stop in an infinite loop.
 116:Generated_Source\PSoC5/cyfitter_cfg.c **** *
 117:Generated_Source\PSoC5/cyfitter_cfg.c **** * Parameters:
 118:Generated_Source\PSoC5/cyfitter_cfg.c **** *   void
 119:Generated_Source\PSoC5/cyfitter_cfg.c **** *
 120:Generated_Source\PSoC5/cyfitter_cfg.c **** * Return:
 121:Generated_Source\PSoC5/cyfitter_cfg.c **** *   void
 122:Generated_Source\PSoC5/cyfitter_cfg.c **** *
 123:Generated_Source\PSoC5/cyfitter_cfg.c **** *******************************************************************************/
 124:Generated_Source\PSoC5/cyfitter_cfg.c **** CY_CFG_UNUSED
 125:Generated_Source\PSoC5/cyfitter_cfg.c **** static void CyClockStartupError(uint8 errorCode);
 126:Generated_Source\PSoC5/cyfitter_cfg.c **** CY_CFG_UNUSED
 127:Generated_Source\PSoC5/cyfitter_cfg.c **** static void CyClockStartupError(uint8 errorCode)
 128:Generated_Source\PSoC5/cyfitter_cfg.c **** {
  27              		.loc 1 128 0
  28              		.cfi_startproc
  29              		@ Volatile: function does not return.
  30              		@ args = 0, pretend = 0, frame = 0
  31              		@ frame_needed = 0, uses_anonymous_args = 0
  32              		@ link register save eliminated.
  33              	.LVL0:
  34              	.L2:
  35 0000 FEE7     		b	.L2
  36              		.cfi_endproc
  37              	.LFE3:
  38              		.size	CyClockStartupError, .-CyClockStartupError
  39 0002 00BF     		.section	.text.cfg_write_bytes32,"ax",%progbits
  40              		.align	2
  41              		.thumb
  42              		.thumb_func
  43              		.type	cfg_write_bytes32, %function
ARM GAS  C:\Users\dmarsch\AppData\Local\Temp\ccdxDVrh.s 			page 4


  44              	cfg_write_bytes32:
  45              	.LFB4:
 129:Generated_Source\PSoC5/cyfitter_cfg.c ****     /* To remove the compiler warning if errorCode not used.                */
 130:Generated_Source\PSoC5/cyfitter_cfg.c ****     errorCode = errorCode;
 131:Generated_Source\PSoC5/cyfitter_cfg.c **** 
 132:Generated_Source\PSoC5/cyfitter_cfg.c ****     /* If we have a clock startup error (bad MHz crystal, PLL lock, etc.),  */
 133:Generated_Source\PSoC5/cyfitter_cfg.c ****     /* we will end up here to allow the customer to implement something to  */
 134:Generated_Source\PSoC5/cyfitter_cfg.c ****     /* deal with the clock condition.                                       */
 135:Generated_Source\PSoC5/cyfitter_cfg.c **** 
 136:Generated_Source\PSoC5/cyfitter_cfg.c **** #ifdef CY_CFG_CLOCK_STARTUP_ERROR_CALLBACK
 137:Generated_Source\PSoC5/cyfitter_cfg.c ****     CY_CFG_Clock_Startup_ErrorCallback();
 138:Generated_Source\PSoC5/cyfitter_cfg.c **** #else
 139:Generated_Source\PSoC5/cyfitter_cfg.c ****     /*  If not using CY_CFG_CLOCK_STARTUP_ERROR_CALLBACK, place your clock startup code here. */
 140:Generated_Source\PSoC5/cyfitter_cfg.c ****     /* `#START CyClockStartupError` */
 141:Generated_Source\PSoC5/cyfitter_cfg.c **** 
 142:Generated_Source\PSoC5/cyfitter_cfg.c **** 
 143:Generated_Source\PSoC5/cyfitter_cfg.c **** 
 144:Generated_Source\PSoC5/cyfitter_cfg.c ****     /* `#END` */
 145:Generated_Source\PSoC5/cyfitter_cfg.c **** 
 146:Generated_Source\PSoC5/cyfitter_cfg.c ****     while(1) {}
 147:Generated_Source\PSoC5/cyfitter_cfg.c **** #endif /* CY_CFG_CLOCK_STARTUP_ERROR_CALLBACK */
 148:Generated_Source\PSoC5/cyfitter_cfg.c **** }
 149:Generated_Source\PSoC5/cyfitter_cfg.c **** #endif
 150:Generated_Source\PSoC5/cyfitter_cfg.c **** 
 151:Generated_Source\PSoC5/cyfitter_cfg.c **** #define CY_CFG_BASE_ADDR_COUNT 32u
 152:Generated_Source\PSoC5/cyfitter_cfg.c **** CYPACKED typedef struct
 153:Generated_Source\PSoC5/cyfitter_cfg.c **** {
 154:Generated_Source\PSoC5/cyfitter_cfg.c **** 	uint8 offset;
 155:Generated_Source\PSoC5/cyfitter_cfg.c **** 	uint8 value;
 156:Generated_Source\PSoC5/cyfitter_cfg.c **** } CYPACKED_ATTR cy_cfg_addrvalue_t;
 157:Generated_Source\PSoC5/cyfitter_cfg.c **** 
 158:Generated_Source\PSoC5/cyfitter_cfg.c **** #define cy_cfg_addr_table ((const uint32 CYFAR *)0x48000000u)
 159:Generated_Source\PSoC5/cyfitter_cfg.c **** #define cy_cfg_data_table ((const cy_cfg_addrvalue_t CYFAR *)0x48000080u)
 160:Generated_Source\PSoC5/cyfitter_cfg.c **** 
 161:Generated_Source\PSoC5/cyfitter_cfg.c **** /* IOPORT_7 Address: CYDEV_PRTDSI_PRT12_BASE Size (bytes): 6 */
 162:Generated_Source\PSoC5/cyfitter_cfg.c **** #define BS_IOPORT_7_VAL ((const uint8 CYFAR *)0x48000570u)
 163:Generated_Source\PSoC5/cyfitter_cfg.c **** 
 164:Generated_Source\PSoC5/cyfitter_cfg.c **** /* UDB_0_0_0_CONFIG Address: CYDEV_UCFG_B1_P5_U0_BASE Size (bytes): 128 */
 165:Generated_Source\PSoC5/cyfitter_cfg.c **** #define BS_UDB_0_0_0_CONFIG_VAL ((const uint8 CYFAR *)0x48000578u)
 166:Generated_Source\PSoC5/cyfitter_cfg.c **** 
 167:Generated_Source\PSoC5/cyfitter_cfg.c **** /* IOPINS0_0 Address: CYREG_PRT0_DM0 Size (bytes): 8 */
 168:Generated_Source\PSoC5/cyfitter_cfg.c **** #define BS_IOPINS0_0_VAL ((const uint8 CYFAR *)0x480005F8u)
 169:Generated_Source\PSoC5/cyfitter_cfg.c **** 
 170:Generated_Source\PSoC5/cyfitter_cfg.c **** /* IOPINS0_7 Address: CYREG_PRT12_DR Size (bytes): 10 */
 171:Generated_Source\PSoC5/cyfitter_cfg.c **** #define BS_IOPINS0_7_VAL ((const uint8 CYFAR *)0x48000600u)
 172:Generated_Source\PSoC5/cyfitter_cfg.c **** 
 173:Generated_Source\PSoC5/cyfitter_cfg.c **** /* IOPINS0_1 Address: CYREG_PRT1_DM0 Size (bytes): 8 */
 174:Generated_Source\PSoC5/cyfitter_cfg.c **** #define BS_IOPINS0_1_VAL ((const uint8 CYFAR *)0x4800060Cu)
 175:Generated_Source\PSoC5/cyfitter_cfg.c **** 
 176:Generated_Source\PSoC5/cyfitter_cfg.c **** /* IOPINS0_3 Address: CYREG_PRT3_DM0 Size (bytes): 8 */
 177:Generated_Source\PSoC5/cyfitter_cfg.c **** #define BS_IOPINS0_3_VAL ((const uint8 CYFAR *)0x48000614u)
 178:Generated_Source\PSoC5/cyfitter_cfg.c **** 
 179:Generated_Source\PSoC5/cyfitter_cfg.c **** /* CYDEV_CLKDIST_ACFG0_CFG0 Address: CYREG_CLKDIST_ACFG0_CFG0 Size (bytes): 4 */
 180:Generated_Source\PSoC5/cyfitter_cfg.c **** #define BS_CYDEV_CLKDIST_ACFG0_CFG0_VAL ((const uint8 CYFAR *)0x4800061Cu)
 181:Generated_Source\PSoC5/cyfitter_cfg.c **** 
 182:Generated_Source\PSoC5/cyfitter_cfg.c **** 
 183:Generated_Source\PSoC5/cyfitter_cfg.c **** /*******************************************************************************
ARM GAS  C:\Users\dmarsch\AppData\Local\Temp\ccdxDVrh.s 			page 5


 184:Generated_Source\PSoC5/cyfitter_cfg.c **** * Function Name: cfg_write_bytes32
 185:Generated_Source\PSoC5/cyfitter_cfg.c **** ********************************************************************************
 186:Generated_Source\PSoC5/cyfitter_cfg.c **** * Summary:
 187:Generated_Source\PSoC5/cyfitter_cfg.c **** *  This function is used for setting up the chip configuration areas that
 188:Generated_Source\PSoC5/cyfitter_cfg.c **** *  contain relatively sparse data.
 189:Generated_Source\PSoC5/cyfitter_cfg.c **** *
 190:Generated_Source\PSoC5/cyfitter_cfg.c **** * Parameters:
 191:Generated_Source\PSoC5/cyfitter_cfg.c **** *   void
 192:Generated_Source\PSoC5/cyfitter_cfg.c **** *
 193:Generated_Source\PSoC5/cyfitter_cfg.c **** * Return:
 194:Generated_Source\PSoC5/cyfitter_cfg.c **** *   void
 195:Generated_Source\PSoC5/cyfitter_cfg.c **** *
 196:Generated_Source\PSoC5/cyfitter_cfg.c **** *******************************************************************************/
 197:Generated_Source\PSoC5/cyfitter_cfg.c **** static void cfg_write_bytes32(const uint32 addr_table[], const cy_cfg_addrvalue_t data_table[]);
 198:Generated_Source\PSoC5/cyfitter_cfg.c **** static void cfg_write_bytes32(const uint32 addr_table[], const cy_cfg_addrvalue_t data_table[])
 199:Generated_Source\PSoC5/cyfitter_cfg.c **** {
  46              		.loc 1 199 0
  47              		.cfi_startproc
  48              		@ args = 0, pretend = 0, frame = 0
  49              		@ frame_needed = 0, uses_anonymous_args = 0
  50              		@ link register save eliminated.
  51              	.LVL1:
  52              		.loc 1 199 0
  53 0000 F0B4     		push	{r4, r5, r6, r7}
  54              		.cfi_def_cfa_offset 16
  55              		.cfi_offset 4, -16
  56              		.cfi_offset 5, -12
  57              		.cfi_offset 6, -8
  58              		.cfi_offset 7, -4
  59              	.LVL2:
 200:Generated_Source\PSoC5/cyfitter_cfg.c **** 	/* For 32-bit little-endian architectures */
 201:Generated_Source\PSoC5/cyfitter_cfg.c **** 	uint32 i, j = 0u;
  60              		.loc 1 201 0
  61 0002 0022     		movs	r2, #0
 202:Generated_Source\PSoC5/cyfitter_cfg.c **** 	for (i = 0u; i < CY_CFG_BASE_ADDR_COUNT; i++)
  62              		.loc 1 202 0
  63 0004 1746     		mov	r7, r2
  64 0006 11E0     		b	.L4
  65              	.LVL3:
  66              	.L7:
  67              	.LBB2:
 203:Generated_Source\PSoC5/cyfitter_cfg.c **** 	{
 204:Generated_Source\PSoC5/cyfitter_cfg.c **** 		uint32 baseAddr = addr_table[i];
  68              		.loc 1 204 0
  69 0008 50F82760 		ldr	r6, [r0, r7, lsl #2]
  70              	.LVL4:
 205:Generated_Source\PSoC5/cyfitter_cfg.c **** 		uint8 count = (uint8)baseAddr;
  71              		.loc 1 205 0
  72 000c F3B2     		uxtb	r3, r6
  73              	.LVL5:
 206:Generated_Source\PSoC5/cyfitter_cfg.c **** 		baseAddr &= 0xFFFFFF00u;
  74              		.loc 1 206 0
  75 000e 26F0FF06 		bic	r6, r6, #255
  76              	.LVL6:
 207:Generated_Source\PSoC5/cyfitter_cfg.c **** 		while (count != 0u)
  77              		.loc 1 207 0
  78 0012 08E0     		b	.L5
ARM GAS  C:\Users\dmarsch\AppData\Local\Temp\ccdxDVrh.s 			page 6


  79              	.L6:
 208:Generated_Source\PSoC5/cyfitter_cfg.c **** 		{
 209:Generated_Source\PSoC5/cyfitter_cfg.c **** 			CY_SET_REG8((void *)(baseAddr + data_table[j].offset), data_table[j].value);
  80              		.loc 1 209 0
  81 0014 01EB4205 		add	r5, r1, r2, lsl #1
  82 0018 11F81240 		ldrb	r4, [r1, r2, lsl #1]	@ zero_extendqisi2
  83 001c 6D78     		ldrb	r5, [r5, #1]	@ zero_extendqisi2
  84 001e A555     		strb	r5, [r4, r6]
 210:Generated_Source\PSoC5/cyfitter_cfg.c **** 			j++;
  85              		.loc 1 210 0
  86 0020 0132     		adds	r2, r2, #1
  87              	.LVL7:
 211:Generated_Source\PSoC5/cyfitter_cfg.c **** 			count--;
  88              		.loc 1 211 0
  89 0022 013B     		subs	r3, r3, #1
  90              	.LVL8:
  91 0024 DBB2     		uxtb	r3, r3
  92              	.LVL9:
  93              	.L5:
 207:Generated_Source\PSoC5/cyfitter_cfg.c **** 		{
  94              		.loc 1 207 0
  95 0026 002B     		cmp	r3, #0
  96 0028 F4D1     		bne	.L6
  97              	.LBE2:
 202:Generated_Source\PSoC5/cyfitter_cfg.c **** 	{
  98              		.loc 1 202 0 discriminator 2
  99 002a 0137     		adds	r7, r7, #1
 100              	.LVL10:
 101              	.L4:
 202:Generated_Source\PSoC5/cyfitter_cfg.c **** 	{
 102              		.loc 1 202 0 is_stmt 0 discriminator 1
 103 002c 1F2F     		cmp	r7, #31
 104 002e EBD9     		bls	.L7
 212:Generated_Source\PSoC5/cyfitter_cfg.c **** 		}
 213:Generated_Source\PSoC5/cyfitter_cfg.c **** 	}
 214:Generated_Source\PSoC5/cyfitter_cfg.c **** }
 105              		.loc 1 214 0 is_stmt 1
 106 0030 F0BC     		pop	{r4, r5, r6, r7}
 107              		.cfi_restore 7
 108              		.cfi_restore 6
 109              		.cfi_restore 5
 110              		.cfi_restore 4
 111              		.cfi_def_cfa_offset 0
 112              	.LVL11:
 113 0032 7047     		bx	lr
 114              		.cfi_endproc
 115              	.LFE4:
 116              		.size	cfg_write_bytes32, .-cfg_write_bytes32
 117              		.section	.text.AnalogSetDefault,"ax",%progbits
 118              		.align	2
 119              		.thumb
 120              		.thumb_func
 121              		.type	AnalogSetDefault, %function
 122              	AnalogSetDefault:
 123              	.LFB6:
 215:Generated_Source\PSoC5/cyfitter_cfg.c **** 
 216:Generated_Source\PSoC5/cyfitter_cfg.c **** /*******************************************************************************
ARM GAS  C:\Users\dmarsch\AppData\Local\Temp\ccdxDVrh.s 			page 7


 217:Generated_Source\PSoC5/cyfitter_cfg.c **** * Function Name: ClockSetup
 218:Generated_Source\PSoC5/cyfitter_cfg.c **** ********************************************************************************
 219:Generated_Source\PSoC5/cyfitter_cfg.c **** *
 220:Generated_Source\PSoC5/cyfitter_cfg.c **** * Summary:
 221:Generated_Source\PSoC5/cyfitter_cfg.c **** *  Performs the initialization of all of the clocks in the device based on the
 222:Generated_Source\PSoC5/cyfitter_cfg.c **** *  settings in the Clock tab of the DWR.  This includes enabling the requested
 223:Generated_Source\PSoC5/cyfitter_cfg.c **** *  clocks and setting the necessary dividers to produce the desired frequency. 
 224:Generated_Source\PSoC5/cyfitter_cfg.c **** *
 225:Generated_Source\PSoC5/cyfitter_cfg.c **** * Parameters:
 226:Generated_Source\PSoC5/cyfitter_cfg.c **** *  void
 227:Generated_Source\PSoC5/cyfitter_cfg.c **** *
 228:Generated_Source\PSoC5/cyfitter_cfg.c **** * Return:
 229:Generated_Source\PSoC5/cyfitter_cfg.c **** *  void
 230:Generated_Source\PSoC5/cyfitter_cfg.c **** *
 231:Generated_Source\PSoC5/cyfitter_cfg.c **** *******************************************************************************/
 232:Generated_Source\PSoC5/cyfitter_cfg.c **** static void ClockSetup(void);
 233:Generated_Source\PSoC5/cyfitter_cfg.c **** static void ClockSetup(void)
 234:Generated_Source\PSoC5/cyfitter_cfg.c **** {
 235:Generated_Source\PSoC5/cyfitter_cfg.c **** 	uint32 timeout;
 236:Generated_Source\PSoC5/cyfitter_cfg.c **** 	uint8 pllLock;
 237:Generated_Source\PSoC5/cyfitter_cfg.c **** 
 238:Generated_Source\PSoC5/cyfitter_cfg.c **** 
 239:Generated_Source\PSoC5/cyfitter_cfg.c **** 	/* Configure Digital Clocks based on settings from Clock DWR */
 240:Generated_Source\PSoC5/cyfitter_cfg.c **** 	CY_SET_XTND_REG16((void CYFAR *)(CYREG_CLKDIST_DCFG0_CFG0), 0x0000u);
 241:Generated_Source\PSoC5/cyfitter_cfg.c **** 	CY_SET_XTND_REG8((void CYFAR *)(CYREG_CLKDIST_DCFG0_CFG0 + 0x2u), 0x50u);
 242:Generated_Source\PSoC5/cyfitter_cfg.c **** 	CY_SET_XTND_REG16((void CYFAR *)(CYREG_CLKDIST_DCFG1_CFG0), 0x0017u);
 243:Generated_Source\PSoC5/cyfitter_cfg.c **** 	CY_SET_XTND_REG8((void CYFAR *)(CYREG_CLKDIST_DCFG1_CFG0 + 0x2u), 0x18u);
 244:Generated_Source\PSoC5/cyfitter_cfg.c **** 	CY_SET_XTND_REG16((void CYFAR *)(CYREG_CLKDIST_DCFG2_CFG0), 0x0033u);
 245:Generated_Source\PSoC5/cyfitter_cfg.c **** 	CY_SET_XTND_REG8((void CYFAR *)(CYREG_CLKDIST_DCFG2_CFG0 + 0x2u), 0x18u);
 246:Generated_Source\PSoC5/cyfitter_cfg.c **** 
 247:Generated_Source\PSoC5/cyfitter_cfg.c **** 	/* Configure Analog Clocks based on settings from Clock DWR */
 248:Generated_Source\PSoC5/cyfitter_cfg.c **** 	CYCONFIGCPY((void CYFAR *)(CYREG_CLKDIST_ACFG0_CFG0), (const void CYFAR *)(BS_CYDEV_CLKDIST_ACFG0_
 249:Generated_Source\PSoC5/cyfitter_cfg.c **** 
 250:Generated_Source\PSoC5/cyfitter_cfg.c **** 	/* Configure ILO based on settings from Clock DWR */
 251:Generated_Source\PSoC5/cyfitter_cfg.c **** 	CY_SET_XTND_REG8((void CYFAR *)(CYREG_SLOWCLK_ILO_CR0), 0x02u);
 252:Generated_Source\PSoC5/cyfitter_cfg.c **** 	CY_SET_XTND_REG8((void CYFAR *)(CYREG_CLKDIST_CR), 0x08u);
 253:Generated_Source\PSoC5/cyfitter_cfg.c **** 
 254:Generated_Source\PSoC5/cyfitter_cfg.c **** 	/* Configure IMO based on settings from Clock DWR */
 255:Generated_Source\PSoC5/cyfitter_cfg.c **** 	CY_SET_XTND_REG8((void CYFAR *)(CYREG_FASTCLK_IMO_CR), 0x03u);
 256:Generated_Source\PSoC5/cyfitter_cfg.c **** 	CY_SET_XTND_REG8((void CYFAR *)(CYREG_IMO_TR1), (CY_GET_XTND_REG8((void CYFAR *)CYREG_FLSHID_CUST_
 257:Generated_Source\PSoC5/cyfitter_cfg.c **** 
 258:Generated_Source\PSoC5/cyfitter_cfg.c **** 	/* Configure PLL based on settings from Clock DWR */
 259:Generated_Source\PSoC5/cyfitter_cfg.c **** 	CY_SET_XTND_REG16((void CYFAR *)(CYREG_FASTCLK_PLL_P), 0x0008u);
 260:Generated_Source\PSoC5/cyfitter_cfg.c **** 	CY_SET_XTND_REG16((void CYFAR *)(CYREG_FASTCLK_PLL_CFG0), 0x1251u);
 261:Generated_Source\PSoC5/cyfitter_cfg.c **** 	/* Wait up to 250us for the PLL to lock */
 262:Generated_Source\PSoC5/cyfitter_cfg.c **** 	pllLock = 0u;
 263:Generated_Source\PSoC5/cyfitter_cfg.c **** 	for (timeout = 250u / 10u; (timeout > 0u) && (pllLock != 0x03u); timeout--)
 264:Generated_Source\PSoC5/cyfitter_cfg.c **** 	{ 
 265:Generated_Source\PSoC5/cyfitter_cfg.c **** 		pllLock = 0x03u & ((uint8)((uint8)pllLock << 1) | ((CY_GET_XTND_REG8((void CYFAR *)CYREG_FASTCLK_
 266:Generated_Source\PSoC5/cyfitter_cfg.c **** 		CyDelayCycles(10u * 48u); /* Delay 10us based on 48MHz clock */
 267:Generated_Source\PSoC5/cyfitter_cfg.c **** 	}
 268:Generated_Source\PSoC5/cyfitter_cfg.c **** 	/* If we ran out of time the PLL didn't lock so go to the error function */
 269:Generated_Source\PSoC5/cyfitter_cfg.c **** 	if (timeout == 0u)
 270:Generated_Source\PSoC5/cyfitter_cfg.c **** 	{
 271:Generated_Source\PSoC5/cyfitter_cfg.c **** 		CyClockStartupError(CYCLOCKSTART_PLL_ERROR);
 272:Generated_Source\PSoC5/cyfitter_cfg.c **** 	}
 273:Generated_Source\PSoC5/cyfitter_cfg.c **** 
ARM GAS  C:\Users\dmarsch\AppData\Local\Temp\ccdxDVrh.s 			page 8


 274:Generated_Source\PSoC5/cyfitter_cfg.c **** 	/* Configure Bus/Master Clock based on settings from Clock DWR */
 275:Generated_Source\PSoC5/cyfitter_cfg.c **** 	CY_SET_XTND_REG16((void CYFAR *)(CYREG_CLKDIST_MSTR0), 0x0100u);
 276:Generated_Source\PSoC5/cyfitter_cfg.c **** 	CY_SET_XTND_REG8((void CYFAR *)(CYREG_CLKDIST_MSTR0), 0x07u);
 277:Generated_Source\PSoC5/cyfitter_cfg.c **** 	CY_SET_XTND_REG8((void CYFAR *)(CYREG_CLKDIST_BCFG0), 0x00u);
 278:Generated_Source\PSoC5/cyfitter_cfg.c **** 	CY_SET_XTND_REG8((void CYFAR *)(CYREG_CLKDIST_BCFG2), 0x48u);
 279:Generated_Source\PSoC5/cyfitter_cfg.c **** 	CY_SET_XTND_REG8((void CYFAR *)(CYREG_CLKDIST_MSTR0), 0x00u);
 280:Generated_Source\PSoC5/cyfitter_cfg.c **** 	CY_SET_XTND_REG8((void CYFAR *)(CYREG_CLKDIST_LD), 0x02u);
 281:Generated_Source\PSoC5/cyfitter_cfg.c **** 	CY_SET_XTND_REG8((void CYFAR *)(CYREG_CLKDIST_DLY1), 0x04u);
 282:Generated_Source\PSoC5/cyfitter_cfg.c **** 
 283:Generated_Source\PSoC5/cyfitter_cfg.c **** 	CY_SET_XTND_REG8((void CYFAR *)(CYREG_PM_ACT_CFG2), ((CY_GET_XTND_REG8((void CYFAR *)CYREG_PM_ACT_
 284:Generated_Source\PSoC5/cyfitter_cfg.c **** 	CY_SET_XTND_REG8((void CYFAR *)(CYREG_PM_ACT_CFG1), ((CY_GET_XTND_REG8((void CYFAR *)CYREG_PM_ACT_
 285:Generated_Source\PSoC5/cyfitter_cfg.c **** 	CY_SET_XTND_REG8((void CYFAR *)(CYREG_PM_ACT_CFG0), ((CY_GET_XTND_REG8((void CYFAR *)CYREG_PM_ACT_
 286:Generated_Source\PSoC5/cyfitter_cfg.c **** }
 287:Generated_Source\PSoC5/cyfitter_cfg.c **** 
 288:Generated_Source\PSoC5/cyfitter_cfg.c **** 
 289:Generated_Source\PSoC5/cyfitter_cfg.c **** /* Analog API Functions */
 290:Generated_Source\PSoC5/cyfitter_cfg.c **** 
 291:Generated_Source\PSoC5/cyfitter_cfg.c **** 
 292:Generated_Source\PSoC5/cyfitter_cfg.c **** /*******************************************************************************
 293:Generated_Source\PSoC5/cyfitter_cfg.c **** * Function Name: AnalogSetDefault
 294:Generated_Source\PSoC5/cyfitter_cfg.c **** ********************************************************************************
 295:Generated_Source\PSoC5/cyfitter_cfg.c **** *
 296:Generated_Source\PSoC5/cyfitter_cfg.c **** * Summary:
 297:Generated_Source\PSoC5/cyfitter_cfg.c **** *  Sets up the analog portions of the chip to default values based on chip
 298:Generated_Source\PSoC5/cyfitter_cfg.c **** *  configuration options from the project.
 299:Generated_Source\PSoC5/cyfitter_cfg.c **** *
 300:Generated_Source\PSoC5/cyfitter_cfg.c **** * Parameters:
 301:Generated_Source\PSoC5/cyfitter_cfg.c **** *  void
 302:Generated_Source\PSoC5/cyfitter_cfg.c **** *
 303:Generated_Source\PSoC5/cyfitter_cfg.c **** * Return:
 304:Generated_Source\PSoC5/cyfitter_cfg.c **** *  void
 305:Generated_Source\PSoC5/cyfitter_cfg.c **** *
 306:Generated_Source\PSoC5/cyfitter_cfg.c **** *******************************************************************************/
 307:Generated_Source\PSoC5/cyfitter_cfg.c **** static void AnalogSetDefault(void);
 308:Generated_Source\PSoC5/cyfitter_cfg.c **** static void AnalogSetDefault(void)
 309:Generated_Source\PSoC5/cyfitter_cfg.c **** {
 124              		.loc 1 309 0
 125              		.cfi_startproc
 126              		@ args = 0, pretend = 0, frame = 0
 127              		@ frame_needed = 0, uses_anonymous_args = 0
 128              		@ link register save eliminated.
 310:Generated_Source\PSoC5/cyfitter_cfg.c **** 	uint8 bg_xover_inl_trim = CY_GET_XTND_REG8((void CYFAR *)(CYREG_FLSHID_MFG_CFG_BG_XOVER_INL_TRIM +
 129              		.loc 1 310 0
 130 0000 0F4B     		ldr	r3, .L10
 131 0002 1B78     		ldrb	r3, [r3]	@ zero_extendqisi2
 132 0004 DBB2     		uxtb	r3, r3
 133              	.LVL12:
 311:Generated_Source\PSoC5/cyfitter_cfg.c **** 	CY_SET_XTND_REG8((void CYFAR *)(CYREG_BG_DFT0), (bg_xover_inl_trim & 0x07u));
 134              		.loc 1 311 0
 135 0006 03F00701 		and	r1, r3, #7
 136 000a 0E4A     		ldr	r2, .L10+4
 137 000c 1170     		strb	r1, [r2]
 312:Generated_Source\PSoC5/cyfitter_cfg.c **** 	CY_SET_XTND_REG8((void CYFAR *)(CYREG_BG_DFT1), ((bg_xover_inl_trim >> 4) & 0x0Fu));
 138              		.loc 1 312 0
 139 000e 1B09     		lsrs	r3, r3, #4
 140              	.LVL13:
 141 0010 0132     		adds	r2, r2, #1
ARM GAS  C:\Users\dmarsch\AppData\Local\Temp\ccdxDVrh.s 			page 9


 142 0012 1370     		strb	r3, [r2]
 313:Generated_Source\PSoC5/cyfitter_cfg.c **** 	CY_SET_XTND_REG16((void CYFAR *)CYREG_PRT0_AMUX, 0x8040u);
 143              		.loc 1 313 0
 144 0014 48F24002 		movw	r2, #32832
 145 0018 0B4B     		ldr	r3, .L10+8
 146 001a 1A80     		strh	r2, [r3]	@ movhi
 314:Generated_Source\PSoC5/cyfitter_cfg.c **** 	CY_SET_XTND_REG16((void CYFAR *)CYREG_PRT15_AMUX, 0x0808u);
 147              		.loc 1 314 0
 148 001c 40F60802 		movw	r2, #2056
 149 0020 F033     		adds	r3, r3, #240
 150 0022 1A80     		strh	r2, [r3]	@ movhi
 315:Generated_Source\PSoC5/cyfitter_cfg.c **** 	CY_SET_XTND_REG8((void CYFAR *)CYREG_DAC2_SW3, 0x01u);
 151              		.loc 1 315 0
 152 0024 0123     		movs	r3, #1
 153 0026 094A     		ldr	r2, .L10+12
 154 0028 1370     		strb	r3, [r2]
 316:Generated_Source\PSoC5/cyfitter_cfg.c **** 	CY_SET_XTND_REG8((void CYFAR *)CYREG_DAC3_SW3, 0x01u);
 155              		.loc 1 316 0
 156 002a 0832     		adds	r2, r2, #8
 157 002c 1370     		strb	r3, [r2]
 317:Generated_Source\PSoC5/cyfitter_cfg.c **** 	CY_SET_XTND_REG8((void CYFAR *)CYREG_BUS_SW0, 0x80u);
 158              		.loc 1 317 0
 159 002e 8022     		movs	r2, #128
 160 0030 074B     		ldr	r3, .L10+16
 161 0032 1A70     		strb	r2, [r3]
 318:Generated_Source\PSoC5/cyfitter_cfg.c **** 	CY_SET_XTND_REG8((void CYFAR *)CYREG_PUMP_CR0, 0x44u);
 162              		.loc 1 318 0
 163 0034 4422     		movs	r2, #68
 164 0036 A3F2E223 		subw	r3, r3, #738
 165 003a 1A70     		strb	r2, [r3]
 166 003c 7047     		bx	lr
 167              	.L11:
 168 003e 00BF     		.align	2
 169              	.L10:
 170 0040 CF010049 		.word	1224737231
 171 0044 6E580040 		.word	1073764462
 172 0048 0C510040 		.word	1073762572
 173 004c 935A0040 		.word	1073765011
 174 0050 585B0040 		.word	1073765208
 175              		.cfi_endproc
 176              	.LFE6:
 177              		.size	AnalogSetDefault, .-AnalogSetDefault
 178              		.section	.text.CYMEMZERO,"ax",%progbits
 179              		.align	2
 180              		.thumb
 181              		.thumb_func
 182              		.type	CYMEMZERO, %function
 183              	CYMEMZERO:
 184              	.LFB0:
  78:Generated_Source\PSoC5/cyfitter_cfg.c **** 	(void)memset(s, 0, n);
 185              		.loc 1 78 0
 186              		.cfi_startproc
 187              		@ args = 0, pretend = 0, frame = 0
 188              		@ frame_needed = 0, uses_anonymous_args = 0
 189              	.LVL14:
 190 0000 08B5     		push	{r3, lr}
 191              		.cfi_def_cfa_offset 8
ARM GAS  C:\Users\dmarsch\AppData\Local\Temp\ccdxDVrh.s 			page 10


 192              		.cfi_offset 3, -8
 193              		.cfi_offset 14, -4
  79:Generated_Source\PSoC5/cyfitter_cfg.c **** }
 194              		.loc 1 79 0
 195 0002 0A46     		mov	r2, r1
 196 0004 0021     		movs	r1, #0
 197              	.LVL15:
 198 0006 FFF7FEFF 		bl	memset
 199              	.LVL16:
 200 000a 08BD     		pop	{r3, pc}
 201              		.cfi_endproc
 202              	.LFE0:
 203              		.size	CYMEMZERO, .-CYMEMZERO
 204              		.section	.text.CYCONFIGCPY,"ax",%progbits
 205              		.align	2
 206              		.thumb
 207              		.thumb_func
 208              		.type	CYCONFIGCPY, %function
 209              	CYCONFIGCPY:
 210              	.LFB1:
  85:Generated_Source\PSoC5/cyfitter_cfg.c **** 	(void)memcpy(dest, src, n);
 211              		.loc 1 85 0
 212              		.cfi_startproc
 213              		@ args = 0, pretend = 0, frame = 0
 214              		@ frame_needed = 0, uses_anonymous_args = 0
 215              	.LVL17:
 216 0000 08B5     		push	{r3, lr}
 217              		.cfi_def_cfa_offset 8
 218              		.cfi_offset 3, -8
 219              		.cfi_offset 14, -4
  86:Generated_Source\PSoC5/cyfitter_cfg.c **** }
 220              		.loc 1 86 0
 221 0002 FFF7FEFF 		bl	memcpy
 222              	.LVL18:
 223 0006 08BD     		pop	{r3, pc}
 224              		.cfi_endproc
 225              	.LFE1:
 226              		.size	CYCONFIGCPY, .-CYCONFIGCPY
 227              		.section	.text.ClockSetup,"ax",%progbits
 228              		.align	2
 229              		.thumb
 230              		.thumb_func
 231              		.type	ClockSetup, %function
 232              	ClockSetup:
 233              	.LFB5:
 234:Generated_Source\PSoC5/cyfitter_cfg.c **** 	uint32 timeout;
 234              		.loc 1 234 0
 235              		.cfi_startproc
 236              		@ args = 0, pretend = 0, frame = 0
 237              		@ frame_needed = 0, uses_anonymous_args = 0
 238 0000 38B5     		push	{r3, r4, r5, lr}
 239              		.cfi_def_cfa_offset 16
 240              		.cfi_offset 3, -16
 241              		.cfi_offset 4, -12
 242              		.cfi_offset 5, -8
 243              		.cfi_offset 14, -4
 240:Generated_Source\PSoC5/cyfitter_cfg.c **** 	CY_SET_XTND_REG8((void CYFAR *)(CYREG_CLKDIST_DCFG0_CFG0 + 0x2u), 0x50u);
ARM GAS  C:\Users\dmarsch\AppData\Local\Temp\ccdxDVrh.s 			page 11


 244              		.loc 1 240 0
 245 0002 0024     		movs	r4, #0
 246 0004 314B     		ldr	r3, .L22
 247 0006 1C80     		strh	r4, [r3]	@ movhi
 241:Generated_Source\PSoC5/cyfitter_cfg.c **** 	CY_SET_XTND_REG16((void CYFAR *)(CYREG_CLKDIST_DCFG1_CFG0), 0x0017u);
 248              		.loc 1 241 0
 249 0008 5022     		movs	r2, #80
 250 000a 0233     		adds	r3, r3, #2
 251 000c 1A70     		strb	r2, [r3]
 242:Generated_Source\PSoC5/cyfitter_cfg.c **** 	CY_SET_XTND_REG8((void CYFAR *)(CYREG_CLKDIST_DCFG1_CFG0 + 0x2u), 0x18u);
 252              		.loc 1 242 0
 253 000e 1722     		movs	r2, #23
 254 0010 0233     		adds	r3, r3, #2
 255 0012 1A80     		strh	r2, [r3]	@ movhi
 243:Generated_Source\PSoC5/cyfitter_cfg.c **** 	CY_SET_XTND_REG16((void CYFAR *)(CYREG_CLKDIST_DCFG2_CFG0), 0x0033u);
 256              		.loc 1 243 0
 257 0014 1823     		movs	r3, #24
 258 0016 2E4A     		ldr	r2, .L22+4
 259 0018 1370     		strb	r3, [r2]
 244:Generated_Source\PSoC5/cyfitter_cfg.c **** 	CY_SET_XTND_REG8((void CYFAR *)(CYREG_CLKDIST_DCFG2_CFG0 + 0x2u), 0x18u);
 260              		.loc 1 244 0
 261 001a 3321     		movs	r1, #51
 262 001c 0232     		adds	r2, r2, #2
 263 001e 1180     		strh	r1, [r2]	@ movhi
 245:Generated_Source\PSoC5/cyfitter_cfg.c **** 
 264              		.loc 1 245 0
 265 0020 0232     		adds	r2, r2, #2
 266 0022 1370     		strb	r3, [r2]
 248:Generated_Source\PSoC5/cyfitter_cfg.c **** 
 267              		.loc 1 248 0
 268 0024 0422     		movs	r2, #4
 269 0026 2B49     		ldr	r1, .L22+8
 270 0028 2B48     		ldr	r0, .L22+12
 271 002a FFF7FEFF 		bl	CYCONFIGCPY
 272              	.LVL19:
 251:Generated_Source\PSoC5/cyfitter_cfg.c **** 	CY_SET_XTND_REG8((void CYFAR *)(CYREG_CLKDIST_CR), 0x08u);
 273              		.loc 1 251 0
 274 002e 0222     		movs	r2, #2
 275 0030 2A4B     		ldr	r3, .L22+16
 276 0032 1A70     		strb	r2, [r3]
 252:Generated_Source\PSoC5/cyfitter_cfg.c **** 
 277              		.loc 1 252 0
 278 0034 0822     		movs	r2, #8
 279 0036 4FF04023 		mov	r3, #1073758208
 280 003a 1A70     		strb	r2, [r3]
 255:Generated_Source\PSoC5/cyfitter_cfg.c **** 	CY_SET_XTND_REG8((void CYFAR *)(CYREG_IMO_TR1), (CY_GET_XTND_REG8((void CYFAR *)CYREG_FLSHID_CUST_
 281              		.loc 1 255 0
 282 003c 0321     		movs	r1, #3
 283 003e 03F50073 		add	r3, r3, #512
 284 0042 1970     		strb	r1, [r3]
 256:Generated_Source\PSoC5/cyfitter_cfg.c **** 
 285              		.loc 1 256 0
 286 0044 264B     		ldr	r3, .L22+20
 287 0046 1B78     		ldrb	r3, [r3]	@ zero_extendqisi2
 288 0048 DBB2     		uxtb	r3, r3
 289 004a 2649     		ldr	r1, .L22+24
 290 004c 0B70     		strb	r3, [r1]
ARM GAS  C:\Users\dmarsch\AppData\Local\Temp\ccdxDVrh.s 			page 12


 259:Generated_Source\PSoC5/cyfitter_cfg.c **** 	CY_SET_XTND_REG16((void CYFAR *)(CYREG_FASTCLK_PLL_CFG0), 0x1251u);
 291              		.loc 1 259 0
 292 004e 264B     		ldr	r3, .L22+28
 293 0050 1A80     		strh	r2, [r3]	@ movhi
 260:Generated_Source\PSoC5/cyfitter_cfg.c **** 	/* Wait up to 250us for the PLL to lock */
 294              		.loc 1 260 0
 295 0052 41F25122 		movw	r2, #4689
 296 0056 023B     		subs	r3, r3, #2
 297 0058 1A80     		strh	r2, [r3]	@ movhi
 298              	.LVL20:
 263:Generated_Source\PSoC5/cyfitter_cfg.c **** 	{ 
 299              		.loc 1 263 0
 300 005a 1925     		movs	r5, #25
 301 005c 0CE0     		b	.L17
 302              	.LVL21:
 303              	.L19:
 265:Generated_Source\PSoC5/cyfitter_cfg.c **** 		CyDelayCycles(10u * 48u); /* Delay 10us based on 48MHz clock */
 304              		.loc 1 265 0 discriminator 4
 305 005e 234B     		ldr	r3, .L22+32
 306 0060 1B78     		ldrb	r3, [r3]	@ zero_extendqisi2
 307 0062 03F00103 		and	r3, r3, #1
 308 0066 43EA4404 		orr	r4, r3, r4, lsl #1
 309              	.LVL22:
 310 006a 04F00304 		and	r4, r4, #3
 311              	.LVL23:
 266:Generated_Source\PSoC5/cyfitter_cfg.c **** 	}
 312              		.loc 1 266 0 discriminator 4
 313 006e 4FF4F070 		mov	r0, #480
 314 0072 FFF7FEFF 		bl	CyDelayCycles
 315              	.LVL24:
 263:Generated_Source\PSoC5/cyfitter_cfg.c **** 	{ 
 316              		.loc 1 263 0 discriminator 4
 317 0076 013D     		subs	r5, r5, #1
 318              	.LVL25:
 319              	.L17:
 263:Generated_Source\PSoC5/cyfitter_cfg.c **** 	{ 
 320              		.loc 1 263 0 is_stmt 0 discriminator 1
 321 0078 0DB1     		cbz	r5, .L18
 263:Generated_Source\PSoC5/cyfitter_cfg.c **** 	{ 
 322              		.loc 1 263 0 discriminator 3
 323 007a 032C     		cmp	r4, #3
 324 007c EFD1     		bne	.L19
 325              	.L18:
 269:Generated_Source\PSoC5/cyfitter_cfg.c **** 	{
 326              		.loc 1 269 0 is_stmt 1
 327 007e 15B9     		cbnz	r5, .L20
 271:Generated_Source\PSoC5/cyfitter_cfg.c **** 	}
 328              		.loc 1 271 0
 329 0080 0320     		movs	r0, #3
 330 0082 FFF7FEFF 		bl	CyClockStartupError
 331              	.LVL26:
 332              	.L20:
 275:Generated_Source\PSoC5/cyfitter_cfg.c **** 	CY_SET_XTND_REG8((void CYFAR *)(CYREG_CLKDIST_MSTR0), 0x07u);
 333              		.loc 1 275 0
 334 0086 1A4B     		ldr	r3, .L22+36
 335 0088 4FF48072 		mov	r2, #256
 336 008c 1A80     		strh	r2, [r3]	@ movhi
ARM GAS  C:\Users\dmarsch\AppData\Local\Temp\ccdxDVrh.s 			page 13


 276:Generated_Source\PSoC5/cyfitter_cfg.c **** 	CY_SET_XTND_REG8((void CYFAR *)(CYREG_CLKDIST_BCFG0), 0x00u);
 337              		.loc 1 276 0
 338 008e 0722     		movs	r2, #7
 339 0090 1A70     		strb	r2, [r3]
 277:Generated_Source\PSoC5/cyfitter_cfg.c **** 	CY_SET_XTND_REG8((void CYFAR *)(CYREG_CLKDIST_BCFG2), 0x48u);
 340              		.loc 1 277 0
 341 0092 0022     		movs	r2, #0
 342 0094 1749     		ldr	r1, .L22+40
 343 0096 0A70     		strb	r2, [r1]
 278:Generated_Source\PSoC5/cyfitter_cfg.c **** 	CY_SET_XTND_REG8((void CYFAR *)(CYREG_CLKDIST_MSTR0), 0x00u);
 344              		.loc 1 278 0
 345 0098 4820     		movs	r0, #72
 346 009a 0231     		adds	r1, r1, #2
 347 009c 0870     		strb	r0, [r1]
 279:Generated_Source\PSoC5/cyfitter_cfg.c **** 	CY_SET_XTND_REG8((void CYFAR *)(CYREG_CLKDIST_LD), 0x02u);
 348              		.loc 1 279 0
 349 009e 1A70     		strb	r2, [r3]
 280:Generated_Source\PSoC5/cyfitter_cfg.c **** 	CY_SET_XTND_REG8((void CYFAR *)(CYREG_CLKDIST_DLY1), 0x04u);
 350              		.loc 1 280 0
 351 00a0 0222     		movs	r2, #2
 352 00a2 033B     		subs	r3, r3, #3
 353 00a4 1A70     		strb	r2, [r3]
 281:Generated_Source\PSoC5/cyfitter_cfg.c **** 
 354              		.loc 1 281 0
 355 00a6 0422     		movs	r2, #4
 356 00a8 0A33     		adds	r3, r3, #10
 357 00aa 1A70     		strb	r2, [r3]
 283:Generated_Source\PSoC5/cyfitter_cfg.c **** 	CY_SET_XTND_REG8((void CYFAR *)(CYREG_PM_ACT_CFG1), ((CY_GET_XTND_REG8((void CYFAR *)CYREG_PM_ACT_
 358              		.loc 1 283 0
 359 00ac 124A     		ldr	r2, .L22+44
 360 00ae 1378     		ldrb	r3, [r2]	@ zero_extendqisi2
 361 00b0 43F00703 		orr	r3, r3, #7
 362 00b4 1370     		strb	r3, [r2]
 284:Generated_Source\PSoC5/cyfitter_cfg.c **** 	CY_SET_XTND_REG8((void CYFAR *)(CYREG_PM_ACT_CFG0), ((CY_GET_XTND_REG8((void CYFAR *)CYREG_PM_ACT_
 363              		.loc 1 284 0
 364 00b6 013A     		subs	r2, r2, #1
 365 00b8 1378     		ldrb	r3, [r2]	@ zero_extendqisi2
 366 00ba 43F00103 		orr	r3, r3, #1
 367 00be 1370     		strb	r3, [r2]
 285:Generated_Source\PSoC5/cyfitter_cfg.c **** }
 368              		.loc 1 285 0
 369 00c0 013A     		subs	r2, r2, #1
 370 00c2 1378     		ldrb	r3, [r2]	@ zero_extendqisi2
 371 00c4 43F08003 		orr	r3, r3, #128
 372 00c8 1370     		strb	r3, [r2]
 373 00ca 38BD     		pop	{r3, r4, r5, pc}
 374              	.LVL27:
 375              	.L23:
 376              		.align	2
 377              	.L22:
 378 00cc 80400040 		.word	1073758336
 379 00d0 86400040 		.word	1073758342
 380 00d4 1C060048 		.word	1207961116
 381 00d8 00410040 		.word	1073758464
 382 00dc 00430040 		.word	1073758976
 383 00e0 08010049 		.word	1224737032
 384 00e4 A1460040 		.word	1073759905
ARM GAS  C:\Users\dmarsch\AppData\Local\Temp\ccdxDVrh.s 			page 14


 385 00e8 22420040 		.word	1073758754
 386 00ec 25420040 		.word	1073758757
 387 00f0 04400040 		.word	1073758212
 388 00f4 06400040 		.word	1073758214
 389 00f8 A2430040 		.word	1073759138
 390              		.cfi_endproc
 391              	.LFE5:
 392              		.size	ClockSetup, .-ClockSetup
 393              		.section	.text.SetAnalogRoutingPumps,"ax",%progbits
 394              		.align	2
 395              		.global	SetAnalogRoutingPumps
 396              		.thumb
 397              		.thumb_func
 398              		.type	SetAnalogRoutingPumps, %function
 399              	SetAnalogRoutingPumps:
 400              	.LFB7:
 319:Generated_Source\PSoC5/cyfitter_cfg.c **** }
 320:Generated_Source\PSoC5/cyfitter_cfg.c **** 
 321:Generated_Source\PSoC5/cyfitter_cfg.c **** 
 322:Generated_Source\PSoC5/cyfitter_cfg.c **** /*******************************************************************************
 323:Generated_Source\PSoC5/cyfitter_cfg.c **** * Function Name: SetAnalogRoutingPumps
 324:Generated_Source\PSoC5/cyfitter_cfg.c **** ********************************************************************************
 325:Generated_Source\PSoC5/cyfitter_cfg.c **** *
 326:Generated_Source\PSoC5/cyfitter_cfg.c **** * Summary:
 327:Generated_Source\PSoC5/cyfitter_cfg.c **** * Enables or disables the analog pumps feeding analog routing switches.
 328:Generated_Source\PSoC5/cyfitter_cfg.c **** * Intended to be called at startup, based on the Vdda system configuration;
 329:Generated_Source\PSoC5/cyfitter_cfg.c **** * may be called during operation when the user informs us that the Vdda voltage
 330:Generated_Source\PSoC5/cyfitter_cfg.c **** * crossed the pump threshold.
 331:Generated_Source\PSoC5/cyfitter_cfg.c **** *
 332:Generated_Source\PSoC5/cyfitter_cfg.c **** * Parameters:
 333:Generated_Source\PSoC5/cyfitter_cfg.c **** *  enabled - 1 to enable the pumps, 0 to disable the pumps
 334:Generated_Source\PSoC5/cyfitter_cfg.c **** *
 335:Generated_Source\PSoC5/cyfitter_cfg.c **** * Return:
 336:Generated_Source\PSoC5/cyfitter_cfg.c **** *  void
 337:Generated_Source\PSoC5/cyfitter_cfg.c **** *
 338:Generated_Source\PSoC5/cyfitter_cfg.c **** *******************************************************************************/
 339:Generated_Source\PSoC5/cyfitter_cfg.c **** void SetAnalogRoutingPumps(uint8 enabled)
 340:Generated_Source\PSoC5/cyfitter_cfg.c **** {
 401              		.loc 1 340 0
 402              		.cfi_startproc
 403              		@ args = 0, pretend = 0, frame = 0
 404              		@ frame_needed = 0, uses_anonymous_args = 0
 405              		@ link register save eliminated.
 406              	.LVL28:
 341:Generated_Source\PSoC5/cyfitter_cfg.c **** 	uint8 regValue = CY_GET_XTND_REG8((void CYFAR *)CYREG_PUMP_CR0);
 407              		.loc 1 341 0
 408 0000 054B     		ldr	r3, .L27
 409 0002 1B78     		ldrb	r3, [r3]	@ zero_extendqisi2
 410 0004 DBB2     		uxtb	r3, r3
 411              	.LVL29:
 342:Generated_Source\PSoC5/cyfitter_cfg.c **** 	if (enabled != 0u)
 412              		.loc 1 342 0
 413 0006 10B1     		cbz	r0, .L25
 343:Generated_Source\PSoC5/cyfitter_cfg.c **** 	{
 344:Generated_Source\PSoC5/cyfitter_cfg.c **** 		regValue |= 0x22u;
 414              		.loc 1 344 0
 415 0008 43F02203 		orr	r3, r3, #34
ARM GAS  C:\Users\dmarsch\AppData\Local\Temp\ccdxDVrh.s 			page 15


 416              	.LVL30:
 417 000c 01E0     		b	.L26
 418              	.L25:
 345:Generated_Source\PSoC5/cyfitter_cfg.c **** 	}
 346:Generated_Source\PSoC5/cyfitter_cfg.c **** 	else
 347:Generated_Source\PSoC5/cyfitter_cfg.c **** 	{
 348:Generated_Source\PSoC5/cyfitter_cfg.c **** 		regValue &= (uint8)~0x22u;
 419              		.loc 1 348 0
 420 000e 03F0DD03 		and	r3, r3, #221
 421              	.LVL31:
 422              	.L26:
 349:Generated_Source\PSoC5/cyfitter_cfg.c **** 	}
 350:Generated_Source\PSoC5/cyfitter_cfg.c **** 	CY_SET_XTND_REG8((void CYFAR *)CYREG_PUMP_CR0, regValue);
 423              		.loc 1 350 0
 424 0012 014A     		ldr	r2, .L27
 425 0014 1370     		strb	r3, [r2]
 426 0016 7047     		bx	lr
 427              	.L28:
 428              		.align	2
 429              	.L27:
 430 0018 76580040 		.word	1073764470
 431              		.cfi_endproc
 432              	.LFE7:
 433              		.size	SetAnalogRoutingPumps, .-SetAnalogRoutingPumps
 434              		.section	.text.CH_SELECT_Set,"ax",%progbits
 435              		.align	2
 436              		.global	CH_SELECT_Set
 437              		.thumb
 438              		.thumb_func
 439              		.type	CH_SELECT_Set, %function
 440              	CH_SELECT_Set:
 441              	.LFB8:
 351:Generated_Source\PSoC5/cyfitter_cfg.c **** }
 352:Generated_Source\PSoC5/cyfitter_cfg.c **** 
 353:Generated_Source\PSoC5/cyfitter_cfg.c **** 
 354:Generated_Source\PSoC5/cyfitter_cfg.c **** #define CY_AMUX_UNUSED CYREG_BOOST_SR
 355:Generated_Source\PSoC5/cyfitter_cfg.c **** /* This is an implementation detail of the AMux. Code that depends on it may be
 356:Generated_Source\PSoC5/cyfitter_cfg.c ****    incompatible with other versions of PSoC Creator. */
 357:Generated_Source\PSoC5/cyfitter_cfg.c **** uint8 CYXDATA * const CYCODE CH_SELECT__addrTable[4] = {
 358:Generated_Source\PSoC5/cyfitter_cfg.c **** 	(uint8 CYXDATA *)CYREG_PRT0_AG, (uint8 CYXDATA *)CYREG_DSM0_SW0, 
 359:Generated_Source\PSoC5/cyfitter_cfg.c **** 	(uint8 CYXDATA *)CYREG_PRT0_AG, (uint8 CYXDATA *)CYREG_DSM0_SW0, 
 360:Generated_Source\PSoC5/cyfitter_cfg.c **** };
 361:Generated_Source\PSoC5/cyfitter_cfg.c **** 
 362:Generated_Source\PSoC5/cyfitter_cfg.c **** /* This is an implementation detail of the AMux. Code that depends on it may be
 363:Generated_Source\PSoC5/cyfitter_cfg.c ****    incompatible with other versions of PSoC Creator. */
 364:Generated_Source\PSoC5/cyfitter_cfg.c **** const uint8 CYCODE CH_SELECT__maskTable[4] = {
 365:Generated_Source\PSoC5/cyfitter_cfg.c **** 	0x02u, 0x20u, 
 366:Generated_Source\PSoC5/cyfitter_cfg.c **** 	0x04u, 0x40u, 
 367:Generated_Source\PSoC5/cyfitter_cfg.c **** };
 368:Generated_Source\PSoC5/cyfitter_cfg.c **** 
 369:Generated_Source\PSoC5/cyfitter_cfg.c **** /*******************************************************************************
 370:Generated_Source\PSoC5/cyfitter_cfg.c **** * Function Name: CH_SELECT_Set
 371:Generated_Source\PSoC5/cyfitter_cfg.c **** ********************************************************************************
 372:Generated_Source\PSoC5/cyfitter_cfg.c **** * Summary:
 373:Generated_Source\PSoC5/cyfitter_cfg.c **** *  This function is used to set a particular channel as active on the AMux.
 374:Generated_Source\PSoC5/cyfitter_cfg.c **** *
 375:Generated_Source\PSoC5/cyfitter_cfg.c **** * Parameters:  
ARM GAS  C:\Users\dmarsch\AppData\Local\Temp\ccdxDVrh.s 			page 16


 376:Generated_Source\PSoC5/cyfitter_cfg.c **** *   channel - The mux channel input to set as active
 377:Generated_Source\PSoC5/cyfitter_cfg.c **** *
 378:Generated_Source\PSoC5/cyfitter_cfg.c **** * Return:
 379:Generated_Source\PSoC5/cyfitter_cfg.c **** *   void
 380:Generated_Source\PSoC5/cyfitter_cfg.c **** *
 381:Generated_Source\PSoC5/cyfitter_cfg.c **** *******************************************************************************/
 382:Generated_Source\PSoC5/cyfitter_cfg.c **** void CH_SELECT_Set(uint8 channel)
 383:Generated_Source\PSoC5/cyfitter_cfg.c **** {
 442              		.loc 1 383 0
 443              		.cfi_startproc
 444              		@ args = 0, pretend = 0, frame = 0
 445              		@ frame_needed = 0, uses_anonymous_args = 0
 446              		@ link register save eliminated.
 447              	.LVL32:
 384:Generated_Source\PSoC5/cyfitter_cfg.c **** 	if (channel < 2)
 448              		.loc 1 384 0
 449 0000 0128     		cmp	r0, #1
 450 0002 14D8     		bhi	.L33
 383:Generated_Source\PSoC5/cyfitter_cfg.c **** 	if (channel < 2)
 451              		.loc 1 383 0
 452 0004 10B4     		push	{r4}
 453              		.cfi_def_cfa_offset 4
 454              		.cfi_offset 4, -4
 385:Generated_Source\PSoC5/cyfitter_cfg.c **** 	{
 386:Generated_Source\PSoC5/cyfitter_cfg.c **** 		channel += channel;
 455              		.loc 1 386 0
 456 0006 4000     		lsls	r0, r0, #1
 457              	.LVL33:
 458 0008 C0B2     		uxtb	r0, r0
 459              	.LVL34:
 387:Generated_Source\PSoC5/cyfitter_cfg.c **** 		*CH_SELECT__addrTable[channel] |= CH_SELECT__maskTable[channel];
 460              		.loc 1 387 0
 461 000a 094B     		ldr	r3, .L34
 462 000c 53F82010 		ldr	r1, [r3, r0, lsl #2]
 463 0010 1A18     		adds	r2, r3, r0
 464 0012 147C     		ldrb	r4, [r2, #16]	@ zero_extendqisi2
 465 0014 0A78     		ldrb	r2, [r1]	@ zero_extendqisi2
 466 0016 2243     		orrs	r2, r2, r4
 467 0018 0A70     		strb	r2, [r1]
 388:Generated_Source\PSoC5/cyfitter_cfg.c **** 		channel++;
 468              		.loc 1 388 0
 469 001a 0130     		adds	r0, r0, #1
 470              	.LVL35:
 471 001c C0B2     		uxtb	r0, r0
 472              	.LVL36:
 389:Generated_Source\PSoC5/cyfitter_cfg.c **** 		*CH_SELECT__addrTable[channel] |= CH_SELECT__maskTable[channel];
 473              		.loc 1 389 0
 474 001e 53F82020 		ldr	r2, [r3, r0, lsl #2]
 475 0022 1844     		add	r0, r0, r3
 476              	.LVL37:
 477 0024 017C     		ldrb	r1, [r0, #16]	@ zero_extendqisi2
 478 0026 1378     		ldrb	r3, [r2]	@ zero_extendqisi2
 479 0028 0B43     		orrs	r3, r3, r1
 480 002a 1370     		strb	r3, [r2]
 390:Generated_Source\PSoC5/cyfitter_cfg.c **** 	}
 391:Generated_Source\PSoC5/cyfitter_cfg.c **** }
 481              		.loc 1 391 0
ARM GAS  C:\Users\dmarsch\AppData\Local\Temp\ccdxDVrh.s 			page 17


 482 002c 10BC     		pop	{r4}
 483              		.cfi_restore 4
 484              		.cfi_def_cfa_offset 0
 485              	.LVL38:
 486              	.L33:
 487 002e 7047     		bx	lr
 488              	.L35:
 489              		.align	2
 490              	.L34:
 491 0030 00000000 		.word	.LANCHOR0
 492              		.cfi_endproc
 493              	.LFE8:
 494              		.size	CH_SELECT_Set, .-CH_SELECT_Set
 495              		.section	.text.CH_SELECT_Unset,"ax",%progbits
 496              		.align	2
 497              		.global	CH_SELECT_Unset
 498              		.thumb
 499              		.thumb_func
 500              		.type	CH_SELECT_Unset, %function
 501              	CH_SELECT_Unset:
 502              	.LFB9:
 392:Generated_Source\PSoC5/cyfitter_cfg.c **** 
 393:Generated_Source\PSoC5/cyfitter_cfg.c **** /*******************************************************************************
 394:Generated_Source\PSoC5/cyfitter_cfg.c **** * Function Name: CH_SELECT_Unset
 395:Generated_Source\PSoC5/cyfitter_cfg.c **** ********************************************************************************
 396:Generated_Source\PSoC5/cyfitter_cfg.c **** * Summary:
 397:Generated_Source\PSoC5/cyfitter_cfg.c **** *  This function is used to clear a particular channel from being active on the
 398:Generated_Source\PSoC5/cyfitter_cfg.c **** *  AMux.
 399:Generated_Source\PSoC5/cyfitter_cfg.c **** *
 400:Generated_Source\PSoC5/cyfitter_cfg.c **** * Parameters:  
 401:Generated_Source\PSoC5/cyfitter_cfg.c **** *   channel - The mux channel input to mark inactive
 402:Generated_Source\PSoC5/cyfitter_cfg.c **** *
 403:Generated_Source\PSoC5/cyfitter_cfg.c **** * Return:
 404:Generated_Source\PSoC5/cyfitter_cfg.c **** *   void
 405:Generated_Source\PSoC5/cyfitter_cfg.c **** *
 406:Generated_Source\PSoC5/cyfitter_cfg.c **** *******************************************************************************/
 407:Generated_Source\PSoC5/cyfitter_cfg.c **** void CH_SELECT_Unset(uint8 channel)
 408:Generated_Source\PSoC5/cyfitter_cfg.c **** {
 503              		.loc 1 408 0
 504              		.cfi_startproc
 505              		@ args = 0, pretend = 0, frame = 0
 506              		@ frame_needed = 0, uses_anonymous_args = 0
 507              		@ link register save eliminated.
 508              	.LVL39:
 409:Generated_Source\PSoC5/cyfitter_cfg.c **** 	if (channel < 2)
 509              		.loc 1 409 0
 510 0000 0128     		cmp	r0, #1
 511 0002 16D8     		bhi	.L40
 408:Generated_Source\PSoC5/cyfitter_cfg.c **** 	if (channel < 2)
 512              		.loc 1 408 0
 513 0004 10B4     		push	{r4}
 514              		.cfi_def_cfa_offset 4
 515              		.cfi_offset 4, -4
 410:Generated_Source\PSoC5/cyfitter_cfg.c **** 	{
 411:Generated_Source\PSoC5/cyfitter_cfg.c **** 		channel += channel;
 516              		.loc 1 411 0
 517 0006 4000     		lsls	r0, r0, #1
ARM GAS  C:\Users\dmarsch\AppData\Local\Temp\ccdxDVrh.s 			page 18


 518              	.LVL40:
 519 0008 C0B2     		uxtb	r0, r0
 520              	.LVL41:
 412:Generated_Source\PSoC5/cyfitter_cfg.c **** 		*CH_SELECT__addrTable[channel] &= (uint8)~CH_SELECT__maskTable[channel];
 521              		.loc 1 412 0
 522 000a 0A4B     		ldr	r3, .L41
 523 000c 53F82010 		ldr	r1, [r3, r0, lsl #2]
 524 0010 1A18     		adds	r2, r3, r0
 525 0012 147C     		ldrb	r4, [r2, #16]	@ zero_extendqisi2
 526 0014 0A78     		ldrb	r2, [r1]	@ zero_extendqisi2
 527 0016 22EA0402 		bic	r2, r2, r4
 528 001a 0A70     		strb	r2, [r1]
 413:Generated_Source\PSoC5/cyfitter_cfg.c **** 		channel++;
 529              		.loc 1 413 0
 530 001c 0130     		adds	r0, r0, #1
 531              	.LVL42:
 532 001e C0B2     		uxtb	r0, r0
 533              	.LVL43:
 414:Generated_Source\PSoC5/cyfitter_cfg.c **** 		*CH_SELECT__addrTable[channel] &= (uint8)~CH_SELECT__maskTable[channel];
 534              		.loc 1 414 0
 535 0020 53F82020 		ldr	r2, [r3, r0, lsl #2]
 536 0024 1844     		add	r0, r0, r3
 537              	.LVL44:
 538 0026 017C     		ldrb	r1, [r0, #16]	@ zero_extendqisi2
 539 0028 1378     		ldrb	r3, [r2]	@ zero_extendqisi2
 540 002a 23EA0103 		bic	r3, r3, r1
 541 002e 1370     		strb	r3, [r2]
 415:Generated_Source\PSoC5/cyfitter_cfg.c **** 	}
 416:Generated_Source\PSoC5/cyfitter_cfg.c **** }
 542              		.loc 1 416 0
 543 0030 10BC     		pop	{r4}
 544              		.cfi_restore 4
 545              		.cfi_def_cfa_offset 0
 546              	.LVL45:
 547              	.L40:
 548 0032 7047     		bx	lr
 549              	.L42:
 550              		.align	2
 551              	.L41:
 552 0034 00000000 		.word	.LANCHOR0
 553              		.cfi_endproc
 554              	.LFE9:
 555              		.size	CH_SELECT_Unset, .-CH_SELECT_Unset
 556              		.section	.text.ADC_AMux_Set,"ax",%progbits
 557              		.align	2
 558              		.global	ADC_AMux_Set
 559              		.thumb
 560              		.thumb_func
 561              		.type	ADC_AMux_Set, %function
 562              	ADC_AMux_Set:
 563              	.LFB10:
 417:Generated_Source\PSoC5/cyfitter_cfg.c **** 
 418:Generated_Source\PSoC5/cyfitter_cfg.c **** /* This is an implementation detail of the AMux. Code that depends on it may be
 419:Generated_Source\PSoC5/cyfitter_cfg.c ****    incompatible with other versions of PSoC Creator. */
 420:Generated_Source\PSoC5/cyfitter_cfg.c **** uint8 CYXDATA * const CYCODE ADC_AMux__addrTable[2] = {
 421:Generated_Source\PSoC5/cyfitter_cfg.c **** 	(uint8 CYXDATA *)CYREG_DSM0_SW3, 
 422:Generated_Source\PSoC5/cyfitter_cfg.c **** 	(uint8 CYXDATA *)CY_AMUX_UNUSED, 
ARM GAS  C:\Users\dmarsch\AppData\Local\Temp\ccdxDVrh.s 			page 19


 423:Generated_Source\PSoC5/cyfitter_cfg.c **** };
 424:Generated_Source\PSoC5/cyfitter_cfg.c **** 
 425:Generated_Source\PSoC5/cyfitter_cfg.c **** /* This is an implementation detail of the AMux. Code that depends on it may be
 426:Generated_Source\PSoC5/cyfitter_cfg.c ****    incompatible with other versions of PSoC Creator. */
 427:Generated_Source\PSoC5/cyfitter_cfg.c **** const uint8 CYCODE ADC_AMux__maskTable[2] = {
 428:Generated_Source\PSoC5/cyfitter_cfg.c **** 	0x40u, 
 429:Generated_Source\PSoC5/cyfitter_cfg.c **** 	0x00u, 
 430:Generated_Source\PSoC5/cyfitter_cfg.c **** };
 431:Generated_Source\PSoC5/cyfitter_cfg.c **** 
 432:Generated_Source\PSoC5/cyfitter_cfg.c **** /*******************************************************************************
 433:Generated_Source\PSoC5/cyfitter_cfg.c **** * Function Name: ADC_AMux_Set
 434:Generated_Source\PSoC5/cyfitter_cfg.c **** ********************************************************************************
 435:Generated_Source\PSoC5/cyfitter_cfg.c **** * Summary:
 436:Generated_Source\PSoC5/cyfitter_cfg.c **** *  This function is used to set a particular channel as active on the AMux.
 437:Generated_Source\PSoC5/cyfitter_cfg.c **** *
 438:Generated_Source\PSoC5/cyfitter_cfg.c **** * Parameters:  
 439:Generated_Source\PSoC5/cyfitter_cfg.c **** *   channel - The mux channel input to set as active
 440:Generated_Source\PSoC5/cyfitter_cfg.c **** *
 441:Generated_Source\PSoC5/cyfitter_cfg.c **** * Return:
 442:Generated_Source\PSoC5/cyfitter_cfg.c **** *   void
 443:Generated_Source\PSoC5/cyfitter_cfg.c **** *
 444:Generated_Source\PSoC5/cyfitter_cfg.c **** *******************************************************************************/
 445:Generated_Source\PSoC5/cyfitter_cfg.c **** void ADC_AMux_Set(uint8 channel)
 446:Generated_Source\PSoC5/cyfitter_cfg.c **** {
 564              		.loc 1 446 0
 565              		.cfi_startproc
 566              		@ args = 0, pretend = 0, frame = 0
 567              		@ frame_needed = 0, uses_anonymous_args = 0
 568              		@ link register save eliminated.
 569              	.LVL46:
 447:Generated_Source\PSoC5/cyfitter_cfg.c **** 	if (channel < 2)
 570              		.loc 1 447 0
 571 0000 0128     		cmp	r0, #1
 572 0002 08D8     		bhi	.L43
 448:Generated_Source\PSoC5/cyfitter_cfg.c **** 	{
 449:Generated_Source\PSoC5/cyfitter_cfg.c **** 		*ADC_AMux__addrTable[channel] |= ADC_AMux__maskTable[channel];
 573              		.loc 1 449 0
 574 0004 044B     		ldr	r3, .L45
 575 0006 03EB8002 		add	r2, r3, r0, lsl #2
 576 000a 5269     		ldr	r2, [r2, #20]
 577 000c 1844     		add	r0, r0, r3
 578              	.LVL47:
 579 000e 017F     		ldrb	r1, [r0, #28]	@ zero_extendqisi2
 580 0010 1378     		ldrb	r3, [r2]	@ zero_extendqisi2
 581 0012 0B43     		orrs	r3, r3, r1
 582 0014 1370     		strb	r3, [r2]
 583              	.L43:
 584 0016 7047     		bx	lr
 585              	.L46:
 586              		.align	2
 587              	.L45:
 588 0018 00000000 		.word	.LANCHOR0
 589              		.cfi_endproc
 590              	.LFE10:
 591              		.size	ADC_AMux_Set, .-ADC_AMux_Set
 592              		.section	.text.ADC_AMux_Unset,"ax",%progbits
 593              		.align	2
ARM GAS  C:\Users\dmarsch\AppData\Local\Temp\ccdxDVrh.s 			page 20


 594              		.global	ADC_AMux_Unset
 595              		.thumb
 596              		.thumb_func
 597              		.type	ADC_AMux_Unset, %function
 598              	ADC_AMux_Unset:
 599              	.LFB11:
 450:Generated_Source\PSoC5/cyfitter_cfg.c **** 	}
 451:Generated_Source\PSoC5/cyfitter_cfg.c **** }
 452:Generated_Source\PSoC5/cyfitter_cfg.c **** 
 453:Generated_Source\PSoC5/cyfitter_cfg.c **** /*******************************************************************************
 454:Generated_Source\PSoC5/cyfitter_cfg.c **** * Function Name: ADC_AMux_Unset
 455:Generated_Source\PSoC5/cyfitter_cfg.c **** ********************************************************************************
 456:Generated_Source\PSoC5/cyfitter_cfg.c **** * Summary:
 457:Generated_Source\PSoC5/cyfitter_cfg.c **** *  This function is used to clear a particular channel from being active on the
 458:Generated_Source\PSoC5/cyfitter_cfg.c **** *  AMux.
 459:Generated_Source\PSoC5/cyfitter_cfg.c **** *
 460:Generated_Source\PSoC5/cyfitter_cfg.c **** * Parameters:  
 461:Generated_Source\PSoC5/cyfitter_cfg.c **** *   channel - The mux channel input to mark inactive
 462:Generated_Source\PSoC5/cyfitter_cfg.c **** *
 463:Generated_Source\PSoC5/cyfitter_cfg.c **** * Return:
 464:Generated_Source\PSoC5/cyfitter_cfg.c **** *   void
 465:Generated_Source\PSoC5/cyfitter_cfg.c **** *
 466:Generated_Source\PSoC5/cyfitter_cfg.c **** *******************************************************************************/
 467:Generated_Source\PSoC5/cyfitter_cfg.c **** void ADC_AMux_Unset(uint8 channel)
 468:Generated_Source\PSoC5/cyfitter_cfg.c **** {
 600              		.loc 1 468 0
 601              		.cfi_startproc
 602              		@ args = 0, pretend = 0, frame = 0
 603              		@ frame_needed = 0, uses_anonymous_args = 0
 604              		@ link register save eliminated.
 605              	.LVL48:
 469:Generated_Source\PSoC5/cyfitter_cfg.c **** 	if (channel < 2)
 606              		.loc 1 469 0
 607 0000 0128     		cmp	r0, #1
 608 0002 09D8     		bhi	.L47
 470:Generated_Source\PSoC5/cyfitter_cfg.c **** 	{
 471:Generated_Source\PSoC5/cyfitter_cfg.c **** 		*ADC_AMux__addrTable[channel] &= (uint8)~ADC_AMux__maskTable[channel];
 609              		.loc 1 471 0
 610 0004 054B     		ldr	r3, .L49
 611 0006 03EB8002 		add	r2, r3, r0, lsl #2
 612 000a 5269     		ldr	r2, [r2, #20]
 613 000c 1844     		add	r0, r0, r3
 614              	.LVL49:
 615 000e 017F     		ldrb	r1, [r0, #28]	@ zero_extendqisi2
 616 0010 1378     		ldrb	r3, [r2]	@ zero_extendqisi2
 617 0012 23EA0103 		bic	r3, r3, r1
 618 0016 1370     		strb	r3, [r2]
 619              	.L47:
 620 0018 7047     		bx	lr
 621              	.L50:
 622 001a 00BF     		.align	2
 623              	.L49:
 624 001c 00000000 		.word	.LANCHOR0
 625              		.cfi_endproc
 626              	.LFE11:
 627              		.size	ADC_AMux_Unset, .-ADC_AMux_Unset
 628              		.section	.text.cyfitter_cfg,"ax",%progbits
ARM GAS  C:\Users\dmarsch\AppData\Local\Temp\ccdxDVrh.s 			page 21


 629              		.align	2
 630              		.global	cyfitter_cfg
 631              		.thumb
 632              		.thumb_func
 633              		.type	cyfitter_cfg, %function
 634              	cyfitter_cfg:
 635              	.LFB12:
 472:Generated_Source\PSoC5/cyfitter_cfg.c **** 	}
 473:Generated_Source\PSoC5/cyfitter_cfg.c **** }
 474:Generated_Source\PSoC5/cyfitter_cfg.c **** 
 475:Generated_Source\PSoC5/cyfitter_cfg.c **** 
 476:Generated_Source\PSoC5/cyfitter_cfg.c **** 
 477:Generated_Source\PSoC5/cyfitter_cfg.c **** /*******************************************************************************
 478:Generated_Source\PSoC5/cyfitter_cfg.c **** * Function Name: cyfitter_cfg
 479:Generated_Source\PSoC5/cyfitter_cfg.c **** ********************************************************************************
 480:Generated_Source\PSoC5/cyfitter_cfg.c **** * Summary:
 481:Generated_Source\PSoC5/cyfitter_cfg.c **** *  This function is called by the start-up code for the selected device. It
 482:Generated_Source\PSoC5/cyfitter_cfg.c **** *  performs all of the necessary device configuration based on the design
 483:Generated_Source\PSoC5/cyfitter_cfg.c **** *  settings.  This includes settings from the Design Wide Resources (DWR) such
 484:Generated_Source\PSoC5/cyfitter_cfg.c **** *  as Clocks and Pins as well as any component configuration that is necessary.
 485:Generated_Source\PSoC5/cyfitter_cfg.c **** *
 486:Generated_Source\PSoC5/cyfitter_cfg.c **** * Parameters:
 487:Generated_Source\PSoC5/cyfitter_cfg.c **** *   void
 488:Generated_Source\PSoC5/cyfitter_cfg.c **** *
 489:Generated_Source\PSoC5/cyfitter_cfg.c **** * Return:
 490:Generated_Source\PSoC5/cyfitter_cfg.c **** *   void
 491:Generated_Source\PSoC5/cyfitter_cfg.c **** *
 492:Generated_Source\PSoC5/cyfitter_cfg.c **** *******************************************************************************/
 493:Generated_Source\PSoC5/cyfitter_cfg.c **** 
 494:Generated_Source\PSoC5/cyfitter_cfg.c **** void cyfitter_cfg(void)
 495:Generated_Source\PSoC5/cyfitter_cfg.c **** {
 636              		.loc 1 495 0
 637              		.cfi_startproc
 638              		@ args = 0, pretend = 0, frame = 0
 639              		@ frame_needed = 0, uses_anonymous_args = 0
 640 0000 38B5     		push	{r3, r4, r5, lr}
 641              		.cfi_def_cfa_offset 16
 642              		.cfi_offset 3, -16
 643              		.cfi_offset 4, -12
 644              		.cfi_offset 5, -8
 645              		.cfi_offset 14, -4
 496:Generated_Source\PSoC5/cyfitter_cfg.c **** #ifdef CYGlobalIntDisable
 497:Generated_Source\PSoC5/cyfitter_cfg.c **** 	/* Disable interrupts by default. Let user enable if/when they want. */
 498:Generated_Source\PSoC5/cyfitter_cfg.c **** 	CYGlobalIntDisable
 646              		.loc 1 498 0
 647              		.syntax unified
 648              	@ 498 "Generated_Source\PSoC5\cyfitter_cfg.c" 1
 649 0002 72B6     		CPSID   i
 650              	@ 0 "" 2
 499:Generated_Source\PSoC5/cyfitter_cfg.c **** #endif
 500:Generated_Source\PSoC5/cyfitter_cfg.c **** 
 501:Generated_Source\PSoC5/cyfitter_cfg.c **** 	/* Enable/Disable Debug functionality based on settings from System DWR */
 502:Generated_Source\PSoC5/cyfitter_cfg.c **** 	CY_SET_XTND_REG8((void CYFAR *)CYREG_MLOGIC_DEBUG, (CY_GET_XTND_REG8((void CYFAR *)CYREG_MLOGIC_DE
 651              		.loc 1 502 0
 652              		.thumb
 653              		.syntax unified
 654 0004 374A     		ldr	r2, .L57
ARM GAS  C:\Users\dmarsch\AppData\Local\Temp\ccdxDVrh.s 			page 22


 655 0006 1378     		ldrb	r3, [r2]	@ zero_extendqisi2
 656 0008 43F00403 		orr	r3, r3, #4
 657 000c 1370     		strb	r3, [r2]
 658              	.LVL50:
 659              	.LBB3:
 503:Generated_Source\PSoC5/cyfitter_cfg.c **** 
 504:Generated_Source\PSoC5/cyfitter_cfg.c **** 	{
 505:Generated_Source\PSoC5/cyfitter_cfg.c **** 
 506:Generated_Source\PSoC5/cyfitter_cfg.c **** 		CYPACKED typedef struct {
 507:Generated_Source\PSoC5/cyfitter_cfg.c **** 			void CYFAR *address;
 508:Generated_Source\PSoC5/cyfitter_cfg.c **** 			uint16 size;
 509:Generated_Source\PSoC5/cyfitter_cfg.c **** 		} CYPACKED_ATTR cfg_memset_t;
 510:Generated_Source\PSoC5/cyfitter_cfg.c **** 
 511:Generated_Source\PSoC5/cyfitter_cfg.c **** 
 512:Generated_Source\PSoC5/cyfitter_cfg.c **** 		CYPACKED typedef struct {
 513:Generated_Source\PSoC5/cyfitter_cfg.c **** 			void CYFAR *dest;
 514:Generated_Source\PSoC5/cyfitter_cfg.c **** 			const void CYFAR *src;
 515:Generated_Source\PSoC5/cyfitter_cfg.c **** 			uint16 size;
 516:Generated_Source\PSoC5/cyfitter_cfg.c **** 		} CYPACKED_ATTR cfg_memcpy_t;
 517:Generated_Source\PSoC5/cyfitter_cfg.c **** 
 518:Generated_Source\PSoC5/cyfitter_cfg.c **** 		static const cfg_memset_t CYCODE cfg_memset_list[] = {
 519:Generated_Source\PSoC5/cyfitter_cfg.c **** 			/* address, size */
 520:Generated_Source\PSoC5/cyfitter_cfg.c **** 			{(void CYFAR *)(CYREG_PRT2_DR), 16u},
 521:Generated_Source\PSoC5/cyfitter_cfg.c **** 			{(void CYFAR *)(CYREG_PRT4_DR), 48u},
 522:Generated_Source\PSoC5/cyfitter_cfg.c **** 			{(void CYFAR *)(CYREG_PRT15_DR), 16u},
 523:Generated_Source\PSoC5/cyfitter_cfg.c **** 			{(void CYFAR *)(CYDEV_UCFG_B0_P0_U0_BASE), 4096u},
 524:Generated_Source\PSoC5/cyfitter_cfg.c **** 			{(void CYFAR *)(CYDEV_UCFG_B1_P2_U0_BASE), 1536u},
 525:Generated_Source\PSoC5/cyfitter_cfg.c **** 			{(void CYFAR *)(CYDEV_UCFG_B1_P5_U1_BASE), 384u},
 526:Generated_Source\PSoC5/cyfitter_cfg.c **** 			{(void CYFAR *)(CYDEV_UCFG_DSI0_BASE), 2560u},
 527:Generated_Source\PSoC5/cyfitter_cfg.c **** 			{(void CYFAR *)(CYDEV_UCFG_DSI12_BASE), 512u},
 528:Generated_Source\PSoC5/cyfitter_cfg.c **** 			{(void CYFAR *)(CYREG_BCTL0_MDCLK_EN), 32u},
 529:Generated_Source\PSoC5/cyfitter_cfg.c **** 		};
 530:Generated_Source\PSoC5/cyfitter_cfg.c **** 
 531:Generated_Source\PSoC5/cyfitter_cfg.c **** 		static const cfg_memcpy_t CYCODE cfg_memcpy_list [] = {
 532:Generated_Source\PSoC5/cyfitter_cfg.c **** 			/* dest, src, size */
 533:Generated_Source\PSoC5/cyfitter_cfg.c **** 			{(void CYFAR *)(CYDEV_PRTDSI_PRT12_BASE), BS_IOPORT_7_VAL, 6u},
 534:Generated_Source\PSoC5/cyfitter_cfg.c **** 			{(void CYFAR *)(CYDEV_UCFG_B1_P5_U0_BASE), BS_UDB_0_0_0_CONFIG_VAL, 128u},
 535:Generated_Source\PSoC5/cyfitter_cfg.c **** 		};
 536:Generated_Source\PSoC5/cyfitter_cfg.c **** 
 537:Generated_Source\PSoC5/cyfitter_cfg.c **** 		uint8 CYDATA i;
 538:Generated_Source\PSoC5/cyfitter_cfg.c **** 
 539:Generated_Source\PSoC5/cyfitter_cfg.c **** 		/* Zero out critical memory blocks before beginning configuration */
 540:Generated_Source\PSoC5/cyfitter_cfg.c **** 		for (i = 0u; i < (sizeof(cfg_memset_list)/sizeof(cfg_memset_list[0])); i++)
 660              		.loc 1 540 0
 661 000e 0024     		movs	r4, #0
 662 0010 0BE0     		b	.L52
 663              	.LVL51:
 664              	.L53:
 665              	.LBB4:
 541:Generated_Source\PSoC5/cyfitter_cfg.c **** 		{
 542:Generated_Source\PSoC5/cyfitter_cfg.c **** 			const cfg_memset_t CYCODE * CYDATA ms = &cfg_memset_list[i];
 543:Generated_Source\PSoC5/cyfitter_cfg.c **** 			CYMEMZERO(ms->address, (size_t)(uint32)(ms->size));
 666              		.loc 1 543 0 discriminator 3
 667 0012 3548     		ldr	r0, .L57+4
 668 0014 6300     		lsls	r3, r4, #1
 669 0016 1A19     		adds	r2, r3, r4
 670 0018 5100     		lsls	r1, r2, #1
ARM GAS  C:\Users\dmarsch\AppData\Local\Temp\ccdxDVrh.s 			page 23


 671 001a 0144     		add	r1, r1, r0
 672 001c 0A46     		mov	r2, r1
 673 001e 898C     		ldrh	r1, [r1, #36]
 674 0020 106A     		ldr	r0, [r2, #32]	@ unaligned
 675 0022 FFF7FEFF 		bl	CYMEMZERO
 676              	.LVL52:
 677              	.LBE4:
 540:Generated_Source\PSoC5/cyfitter_cfg.c **** 		{
 678              		.loc 1 540 0 discriminator 3
 679 0026 0134     		adds	r4, r4, #1
 680              	.LVL53:
 681 0028 E4B2     		uxtb	r4, r4
 682              	.LVL54:
 683              	.L52:
 540:Generated_Source\PSoC5/cyfitter_cfg.c **** 		{
 684              		.loc 1 540 0 is_stmt 0 discriminator 1
 685 002a 082C     		cmp	r4, #8
 686 002c F1D9     		bls	.L53
 687 002e 0024     		movs	r4, #0
 688              	.LVL55:
 689 0030 0CE0     		b	.L54
 690              	.LVL56:
 691              	.L55:
 692              	.LBB5:
 544:Generated_Source\PSoC5/cyfitter_cfg.c **** 		}
 545:Generated_Source\PSoC5/cyfitter_cfg.c **** 
 546:Generated_Source\PSoC5/cyfitter_cfg.c **** 		/* Copy device configuration data into registers */
 547:Generated_Source\PSoC5/cyfitter_cfg.c **** 		for (i = 0u; i < (sizeof(cfg_memcpy_list)/sizeof(cfg_memcpy_list[0])); i++)
 548:Generated_Source\PSoC5/cyfitter_cfg.c **** 		{
 549:Generated_Source\PSoC5/cyfitter_cfg.c **** 			const cfg_memcpy_t CYCODE * CYDATA mc = &cfg_memcpy_list[i];
 550:Generated_Source\PSoC5/cyfitter_cfg.c **** 			void * CYDATA destPtr = mc->dest;
 693              		.loc 1 550 0 is_stmt 1 discriminator 3
 694 0032 2D48     		ldr	r0, .L57+4
 695 0034 A200     		lsls	r2, r4, #2
 696 0036 1119     		adds	r1, r2, r4
 697 0038 4B00     		lsls	r3, r1, #1
 698 003a 0344     		add	r3, r3, r0
 699              	.LVL57:
 551:Generated_Source\PSoC5/cyfitter_cfg.c **** 			const void * CYDATA srcPtr = mc->src;
 552:Generated_Source\PSoC5/cyfitter_cfg.c **** 			uint16 CYDATA numBytes = mc->size;
 553:Generated_Source\PSoC5/cyfitter_cfg.c **** 			CYCONFIGCPY(destPtr, srcPtr, numBytes);
 700              		.loc 1 553 0 discriminator 3
 701 003c B3F86020 		ldrh	r2, [r3, #96]
 702 0040 D96D     		ldr	r1, [r3, #92]	@ unaligned
 703              	.LVL58:
 704 0042 986D     		ldr	r0, [r3, #88]	@ unaligned
 705              	.LVL59:
 706 0044 FFF7FEFF 		bl	CYCONFIGCPY
 707              	.LVL60:
 708              	.LBE5:
 547:Generated_Source\PSoC5/cyfitter_cfg.c **** 		{
 709              		.loc 1 547 0 discriminator 3
 710 0048 0134     		adds	r4, r4, #1
 711              	.LVL61:
 712 004a E4B2     		uxtb	r4, r4
 713              	.LVL62:
 714              	.L54:
ARM GAS  C:\Users\dmarsch\AppData\Local\Temp\ccdxDVrh.s 			page 24


 547:Generated_Source\PSoC5/cyfitter_cfg.c **** 		{
 715              		.loc 1 547 0 is_stmt 0 discriminator 1
 716 004c 012C     		cmp	r4, #1
 717 004e F0D9     		bls	.L55
 554:Generated_Source\PSoC5/cyfitter_cfg.c **** 		}
 555:Generated_Source\PSoC5/cyfitter_cfg.c **** 
 556:Generated_Source\PSoC5/cyfitter_cfg.c **** 		cfg_write_bytes32(cy_cfg_addr_table, cy_cfg_data_table);
 718              		.loc 1 556 0 is_stmt 1
 719 0050 2649     		ldr	r1, .L57+8
 720 0052 4FF09040 		mov	r0, #1207959552
 721 0056 FFF7FEFF 		bl	cfg_write_bytes32
 722              	.LVL63:
 557:Generated_Source\PSoC5/cyfitter_cfg.c **** 
 558:Generated_Source\PSoC5/cyfitter_cfg.c **** 		/* Perform normal device configuration. Order is not critical for these items. */
 559:Generated_Source\PSoC5/cyfitter_cfg.c **** 		CY_SET_XTND_REG8((void CYFAR *)(CYREG_DSM0_CR3), 0x0Au);
 723              		.loc 1 559 0
 724 005a 0A25     		movs	r5, #10
 725 005c 244B     		ldr	r3, .L57+12
 726 005e 1D70     		strb	r5, [r3]
 560:Generated_Source\PSoC5/cyfitter_cfg.c **** 
 561:Generated_Source\PSoC5/cyfitter_cfg.c **** 		/* Enable digital routing */
 562:Generated_Source\PSoC5/cyfitter_cfg.c **** 		CY_SET_XTND_REG8((void CYFAR *)CYREG_BCTL0_BANK_CTL, CY_GET_XTND_REG8((void CYFAR *)CYREG_BCTL0_B
 727              		.loc 1 562 0
 728 0060 244A     		ldr	r2, .L57+16
 729 0062 1378     		ldrb	r3, [r2]	@ zero_extendqisi2
 730 0064 43F00203 		orr	r3, r3, #2
 731 0068 1370     		strb	r3, [r2]
 563:Generated_Source\PSoC5/cyfitter_cfg.c **** 		CY_SET_XTND_REG8((void CYFAR *)CYREG_BCTL1_BANK_CTL, CY_GET_XTND_REG8((void CYFAR *)CYREG_BCTL1_B
 732              		.loc 1 563 0
 733 006a 1032     		adds	r2, r2, #16
 734 006c 1378     		ldrb	r3, [r2]	@ zero_extendqisi2
 735 006e 43F00203 		orr	r3, r3, #2
 736 0072 1370     		strb	r3, [r2]
 564:Generated_Source\PSoC5/cyfitter_cfg.c **** 
 565:Generated_Source\PSoC5/cyfitter_cfg.c **** 		/* Enable UDB array */
 566:Generated_Source\PSoC5/cyfitter_cfg.c **** 		CY_SET_XTND_REG8((void CYFAR *)CYREG_PM_ACT_CFG0, CY_GET_XTND_REG8((void CYFAR *)CYREG_PM_ACT_CFG
 737              		.loc 1 566 0
 738 0074 204C     		ldr	r4, .L57+20
 739              	.LVL64:
 740 0076 2378     		ldrb	r3, [r4]	@ zero_extendqisi2
 741 0078 43F04003 		orr	r3, r3, #64
 742 007c 2370     		strb	r3, [r4]
 567:Generated_Source\PSoC5/cyfitter_cfg.c **** 		CY_SET_XTND_REG8((void CYFAR *)CYREG_PM_AVAIL_CR2, CY_GET_XTND_REG8((void CYFAR *)CYREG_PM_AVAIL_
 743              		.loc 1 567 0
 744 007e A2F58632 		sub	r2, r2, #68608
 745 0082 513A     		subs	r2, r2, #81
 746 0084 1378     		ldrb	r3, [r2]	@ zero_extendqisi2
 747 0086 43F01003 		orr	r3, r3, #16
 748 008a 1370     		strb	r3, [r2]
 749              	.LBE3:
 568:Generated_Source\PSoC5/cyfitter_cfg.c **** 	}
 569:Generated_Source\PSoC5/cyfitter_cfg.c **** 
 570:Generated_Source\PSoC5/cyfitter_cfg.c **** 
 571:Generated_Source\PSoC5/cyfitter_cfg.c **** 	/* Perform second pass device configuration. These items must be configured in specific order afte
 572:Generated_Source\PSoC5/cyfitter_cfg.c **** 	CYCONFIGCPY((void CYFAR *)(CYREG_PRT0_DM0), (const void CYFAR *)(BS_IOPINS0_0_VAL), 8u);
 750              		.loc 1 572 0
 751 008c 0822     		movs	r2, #8
ARM GAS  C:\Users\dmarsch\AppData\Local\Temp\ccdxDVrh.s 			page 25


 752 008e 1B49     		ldr	r1, .L57+24
 753 0090 1B48     		ldr	r0, .L57+28
 754 0092 FFF7FEFF 		bl	CYCONFIGCPY
 755              	.LVL65:
 573:Generated_Source\PSoC5/cyfitter_cfg.c **** 	CYCONFIGCPY((void CYFAR *)(CYREG_PRT12_DR), (const void CYFAR *)(BS_IOPINS0_7_VAL), 10u);
 756              		.loc 1 573 0
 757 0096 2A46     		mov	r2, r5
 758 0098 1A49     		ldr	r1, .L57+32
 759 009a 1B48     		ldr	r0, .L57+36
 760 009c FFF7FEFF 		bl	CYCONFIGCPY
 761              	.LVL66:
 574:Generated_Source\PSoC5/cyfitter_cfg.c **** 	CYCONFIGCPY((void CYFAR *)(CYREG_PRT1_DM0), (const void CYFAR *)(BS_IOPINS0_1_VAL), 8u);
 762              		.loc 1 574 0
 763 00a0 0822     		movs	r2, #8
 764 00a2 1A49     		ldr	r1, .L57+40
 765 00a4 1A48     		ldr	r0, .L57+44
 766 00a6 FFF7FEFF 		bl	CYCONFIGCPY
 767              	.LVL67:
 575:Generated_Source\PSoC5/cyfitter_cfg.c **** 	CYCONFIGCPY((void CYFAR *)(CYREG_PRT3_DM0), (const void CYFAR *)(BS_IOPINS0_3_VAL), 8u);
 768              		.loc 1 575 0
 769 00aa 0822     		movs	r2, #8
 770 00ac 1949     		ldr	r1, .L57+48
 771 00ae 1A48     		ldr	r0, .L57+52
 772 00b0 FFF7FEFF 		bl	CYCONFIGCPY
 773              	.LVL68:
 576:Generated_Source\PSoC5/cyfitter_cfg.c **** 	/* Switch Boost to the precision bandgap reference from its internal reference */
 577:Generated_Source\PSoC5/cyfitter_cfg.c **** 	CY_SET_REG8((void CYXDATA *)CYREG_BOOST_CR2, (CY_GET_REG8((void CYXDATA *)CYREG_BOOST_CR2) | 0x08u
 774              		.loc 1 577 0
 775 00b4 194A     		ldr	r2, .L57+56
 776 00b6 1378     		ldrb	r3, [r2]	@ zero_extendqisi2
 777 00b8 43F00803 		orr	r3, r3, #8
 778 00bc 1370     		strb	r3, [r2]
 578:Generated_Source\PSoC5/cyfitter_cfg.c **** 
 579:Generated_Source\PSoC5/cyfitter_cfg.c **** 	/* Set Flash Cycles based on max possible frequency in case a glitch occurs during ClockSetup(). *
 580:Generated_Source\PSoC5/cyfitter_cfg.c **** 	CY_SET_XTND_REG8((void CYFAR *)(CYREG_CACHE_CC_CTL), (((CYDEV_INSTRUCT_CACHE_ENABLED) != 0) ? 0x61
 779              		.loc 1 580 0
 780 00be 184D     		ldr	r5, .L57+60
 781 00c0 6123     		movs	r3, #97
 782 00c2 2B70     		strb	r3, [r5]
 581:Generated_Source\PSoC5/cyfitter_cfg.c **** 	/* Setup clocks based on selections from Clock DWR */
 582:Generated_Source\PSoC5/cyfitter_cfg.c **** 	ClockSetup();
 783              		.loc 1 582 0
 784 00c4 FFF7FEFF 		bl	ClockSetup
 785              	.LVL69:
 583:Generated_Source\PSoC5/cyfitter_cfg.c **** 	/* Set Flash Cycles based on newly configured 24.00MHz Bus Clock. */
 584:Generated_Source\PSoC5/cyfitter_cfg.c **** 	CY_SET_XTND_REG8((void CYFAR *)(CYREG_CACHE_CC_CTL), (((CYDEV_INSTRUCT_CACHE_ENABLED) != 0) ? 0x81
 786              		.loc 1 584 0
 787 00c8 8123     		movs	r3, #129
 788 00ca 2B70     		strb	r3, [r5]
 585:Generated_Source\PSoC5/cyfitter_cfg.c **** 	CY_SET_XTND_REG8((void CYFAR *)(CYREG_PANTHER_WAITPIPE), 0x01u);
 789              		.loc 1 585 0
 790 00cc 0122     		movs	r2, #1
 791 00ce 154B     		ldr	r3, .L57+64
 792 00d0 1A70     		strb	r2, [r3]
 586:Generated_Source\PSoC5/cyfitter_cfg.c **** 
 587:Generated_Source\PSoC5/cyfitter_cfg.c **** 	/* Perform basic analog initialization to defaults */
 588:Generated_Source\PSoC5/cyfitter_cfg.c **** 	AnalogSetDefault();
ARM GAS  C:\Users\dmarsch\AppData\Local\Temp\ccdxDVrh.s 			page 26


 793              		.loc 1 588 0
 794 00d2 FFF7FEFF 		bl	AnalogSetDefault
 795              	.LVL70:
 589:Generated_Source\PSoC5/cyfitter_cfg.c **** 
 590:Generated_Source\PSoC5/cyfitter_cfg.c **** 	/* Configure alternate active mode */
 591:Generated_Source\PSoC5/cyfitter_cfg.c **** 	CYCONFIGCPY((void CYFAR *)CYDEV_PM_STBY_BASE, (const void CYFAR *)CYDEV_PM_ACT_BASE, 14u);
 796              		.loc 1 591 0
 797 00d6 0E22     		movs	r2, #14
 798 00d8 2146     		mov	r1, r4
 799 00da 1348     		ldr	r0, .L57+68
 800 00dc FFF7FEFF 		bl	CYCONFIGCPY
 801              	.LVL71:
 802 00e0 38BD     		pop	{r3, r4, r5, pc}
 803              	.L58:
 804 00e2 00BF     		.align	2
 805              	.L57:
 806 00e4 E8460040 		.word	1073759976
 807 00e8 00000000 		.word	.LANCHOR0
 808 00ec 80000048 		.word	1207959680
 809 00f0 83580040 		.word	1073764483
 810 00f4 03500140 		.word	1073827843
 811 00f8 A0430040 		.word	1073759136
 812 00fc F8050048 		.word	1207961080
 813 0100 02510040 		.word	1073762562
 814 0104 00060048 		.word	1207961088
 815 0108 C0510040 		.word	1073762752
 816 010c 0C060048 		.word	1207961100
 817 0110 12510040 		.word	1073762578
 818 0114 14060048 		.word	1207961108
 819 0118 32510040 		.word	1073762610
 820 011c 22430040 		.word	1073759010
 821 0120 00480040 		.word	1073760256
 822 0124 04000840 		.word	1074266116
 823 0128 B0430040 		.word	1073759152
 824              		.cfi_endproc
 825              	.LFE12:
 826              		.size	cyfitter_cfg, .-cyfitter_cfg
 827              		.global	ADC_AMux__maskTable
 828              		.global	ADC_AMux__addrTable
 829              		.global	CH_SELECT__maskTable
 830              		.global	CH_SELECT__addrTable
 831              		.section	.rodata
 832              		.align	2
 833              		.set	.LANCHOR0,. + 0
 834              		.type	CH_SELECT__addrTable, %object
 835              		.size	CH_SELECT__addrTable, 16
 836              	CH_SELECT__addrTable:
 837 0000 0D510040 		.word	1073762573
 838 0004 005B0040 		.word	1073765120
 839 0008 0D510040 		.word	1073762573
 840 000c 005B0040 		.word	1073765120
 841              		.type	CH_SELECT__maskTable, %object
 842              		.size	CH_SELECT__maskTable, 4
 843              	CH_SELECT__maskTable:
 844 0010 02       		.byte	2
 845 0011 20       		.byte	32
 846 0012 04       		.byte	4
ARM GAS  C:\Users\dmarsch\AppData\Local\Temp\ccdxDVrh.s 			page 27


 847 0013 40       		.byte	64
 848              		.type	ADC_AMux__addrTable, %object
 849              		.size	ADC_AMux__addrTable, 8
 850              	ADC_AMux__addrTable:
 851 0014 035B0040 		.word	1073765123
 852 0018 24430040 		.word	1073759012
 853              		.type	ADC_AMux__maskTable, %object
 854              		.size	ADC_AMux__maskTable, 2
 855              	ADC_AMux__maskTable:
 856 001c 40       		.byte	64
 857 001d 00       		.byte	0
 858 001e 0000     		.space	2
 859              		.type	cfg_memset_list.5046, %object
 860              		.size	cfg_memset_list.5046, 54
 861              	cfg_memset_list.5046:
 862 0020 20510040 		.word	1073762592
 863 0024 1000     		.short	16
 864 0026 40510040 		.4byte	1073762624
 865 002a 3000     		.short	48
 866 002c F0510040 		.word	1073762800
 867 0030 1000     		.short	16
 868 0032 00000140 		.4byte	1073807360
 869 0036 0010     		.short	4096
 870 0038 00140140 		.word	1073812480
 871 003c 0006     		.short	1536
 872 003e 801A0140 		.4byte	1073814144
 873 0042 8001     		.short	384
 874 0044 00400140 		.word	1073823744
 875 0048 000A     		.short	2560
 876 004a 004C0140 		.4byte	1073826816
 877 004e 0002     		.short	512
 878 0050 00500140 		.word	1073827840
 879 0054 2000     		.short	32
 880 0056 0000     		.space	2
 881              		.type	cfg_memcpy_list.5047, %object
 882              		.size	cfg_memcpy_list.5047, 20
 883              	cfg_memcpy_list.5047:
 884 0058 60520040 		.word	1073762912
 885 005c 70050048 		.word	1207960944
 886 0060 0600     		.short	6
 887 0062 001A0140 		.4byte	1073814016
 888 0066 78050048 		.4byte	1207960952
 889 006a 8000     		.short	128
 890              		.text
 891              	.Letext0:
 892              		.file 2 "c:\\program files (x86)\\cypress\\psoc creator\\4.2\\psoc creator\\import\\gnu\\arm\\5.4.
 893              		.file 3 "Generated_Source\\PSoC5\\cytypes.h"
 894              		.file 4 "Generated_Source\\PSoC5\\CyLib.h"
