ARM GAS  C:\Users\dmarsch\AppData\Local\Temp\ccofvkPo.s 			page 1


   1              		.syntax unified
   2              		.cpu cortex-m3
   3              		.fpu softvfp
   4              		.eabi_attribute 20, 1
   5              		.eabi_attribute 21, 1
   6              		.eabi_attribute 23, 3
   7              		.eabi_attribute 24, 1
   8              		.eabi_attribute 25, 1
   9              		.eabi_attribute 26, 1
  10              		.eabi_attribute 30, 1
  11              		.eabi_attribute 34, 1
  12              		.eabi_attribute 18, 4
  13              		.thumb
  14              		.syntax unified
  15              		.file	"DAC8B_PM.c"
  16              		.text
  17              	.Ltext0:
  18              		.cfi_sections	.debug_frame
  19              		.section	.text.DAC8B_SaveConfig,"ax",%progbits
  20              		.align	2
  21              		.global	DAC8B_SaveConfig
  22              		.thumb
  23              		.thumb_func
  24              		.type	DAC8B_SaveConfig, %function
  25              	DAC8B_SaveConfig:
  26              	.LFB0:
  27              		.file 1 "Generated_Source\\PSoC5\\DAC8B_PM.c"
   1:Generated_Source\PSoC5/DAC8B_PM.c **** /*******************************************************************************
   2:Generated_Source\PSoC5/DAC8B_PM.c **** * File Name: DAC8B_PM.c  
   3:Generated_Source\PSoC5/DAC8B_PM.c **** * Version 1.90
   4:Generated_Source\PSoC5/DAC8B_PM.c **** *
   5:Generated_Source\PSoC5/DAC8B_PM.c **** * Description:
   6:Generated_Source\PSoC5/DAC8B_PM.c **** *  This file provides the power management source code to API for the
   7:Generated_Source\PSoC5/DAC8B_PM.c **** *  VDAC8.  
   8:Generated_Source\PSoC5/DAC8B_PM.c **** *
   9:Generated_Source\PSoC5/DAC8B_PM.c **** * Note:
  10:Generated_Source\PSoC5/DAC8B_PM.c **** *  None
  11:Generated_Source\PSoC5/DAC8B_PM.c **** *
  12:Generated_Source\PSoC5/DAC8B_PM.c **** ********************************************************************************
  13:Generated_Source\PSoC5/DAC8B_PM.c **** * Copyright 2008-2012, Cypress Semiconductor Corporation.  All rights reserved.
  14:Generated_Source\PSoC5/DAC8B_PM.c **** * You may use this file only in accordance with the license, terms, conditions, 
  15:Generated_Source\PSoC5/DAC8B_PM.c **** * disclaimers, and limitations in the end user license agreement accompanying 
  16:Generated_Source\PSoC5/DAC8B_PM.c **** * the software package with which this file was provided.
  17:Generated_Source\PSoC5/DAC8B_PM.c **** *******************************************************************************/
  18:Generated_Source\PSoC5/DAC8B_PM.c **** 
  19:Generated_Source\PSoC5/DAC8B_PM.c **** #include "DAC8B.h"
  20:Generated_Source\PSoC5/DAC8B_PM.c **** 
  21:Generated_Source\PSoC5/DAC8B_PM.c **** static DAC8B_backupStruct DAC8B_backup;
  22:Generated_Source\PSoC5/DAC8B_PM.c **** 
  23:Generated_Source\PSoC5/DAC8B_PM.c **** 
  24:Generated_Source\PSoC5/DAC8B_PM.c **** /*******************************************************************************
  25:Generated_Source\PSoC5/DAC8B_PM.c **** * Function Name: DAC8B_SaveConfig
  26:Generated_Source\PSoC5/DAC8B_PM.c **** ********************************************************************************
  27:Generated_Source\PSoC5/DAC8B_PM.c **** * Summary:
  28:Generated_Source\PSoC5/DAC8B_PM.c **** *  Save the current user configuration
  29:Generated_Source\PSoC5/DAC8B_PM.c **** *
  30:Generated_Source\PSoC5/DAC8B_PM.c **** * Parameters:  
ARM GAS  C:\Users\dmarsch\AppData\Local\Temp\ccofvkPo.s 			page 2


  31:Generated_Source\PSoC5/DAC8B_PM.c **** *  void  
  32:Generated_Source\PSoC5/DAC8B_PM.c **** *
  33:Generated_Source\PSoC5/DAC8B_PM.c **** * Return: 
  34:Generated_Source\PSoC5/DAC8B_PM.c **** *  void
  35:Generated_Source\PSoC5/DAC8B_PM.c **** *
  36:Generated_Source\PSoC5/DAC8B_PM.c **** *******************************************************************************/
  37:Generated_Source\PSoC5/DAC8B_PM.c **** void DAC8B_SaveConfig(void) 
  38:Generated_Source\PSoC5/DAC8B_PM.c **** {
  28              		.loc 1 38 0
  29              		.cfi_startproc
  30              		@ args = 0, pretend = 0, frame = 0
  31              		@ frame_needed = 0, uses_anonymous_args = 0
  32              		@ link register save eliminated.
  39:Generated_Source\PSoC5/DAC8B_PM.c ****     if (!((DAC8B_CR1 & DAC8B_SRC_MASK) == DAC8B_SRC_UDB))
  33              		.loc 1 39 0
  34 0000 044B     		ldr	r3, .L3
  35 0002 1B78     		ldrb	r3, [r3]	@ zero_extendqisi2
  36 0004 13F0200F 		tst	r3, #32
  37 0008 03D1     		bne	.L1
  40:Generated_Source\PSoC5/DAC8B_PM.c ****     {
  41:Generated_Source\PSoC5/DAC8B_PM.c ****         DAC8B_backup.data_value = DAC8B_Data;
  38              		.loc 1 41 0
  39 000a 034B     		ldr	r3, .L3+4
  40 000c 1A78     		ldrb	r2, [r3]	@ zero_extendqisi2
  41 000e 034B     		ldr	r3, .L3+8
  42 0010 5A70     		strb	r2, [r3, #1]
  43              	.L1:
  44 0012 7047     		bx	lr
  45              	.L4:
  46              		.align	2
  47              	.L3:
  48 0014 2D580040 		.word	1073764397
  49 0018 835B0040 		.word	1073765251
  50 001c 00000000 		.word	.LANCHOR0
  51              		.cfi_endproc
  52              	.LFE0:
  53              		.size	DAC8B_SaveConfig, .-DAC8B_SaveConfig
  54              		.section	.text.DAC8B_RestoreConfig,"ax",%progbits
  55              		.align	2
  56              		.global	DAC8B_RestoreConfig
  57              		.thumb
  58              		.thumb_func
  59              		.type	DAC8B_RestoreConfig, %function
  60              	DAC8B_RestoreConfig:
  61              	.LFB1:
  42:Generated_Source\PSoC5/DAC8B_PM.c ****     }
  43:Generated_Source\PSoC5/DAC8B_PM.c **** }
  44:Generated_Source\PSoC5/DAC8B_PM.c **** 
  45:Generated_Source\PSoC5/DAC8B_PM.c **** 
  46:Generated_Source\PSoC5/DAC8B_PM.c **** /*******************************************************************************
  47:Generated_Source\PSoC5/DAC8B_PM.c **** * Function Name: DAC8B_RestoreConfig
  48:Generated_Source\PSoC5/DAC8B_PM.c **** ********************************************************************************
  49:Generated_Source\PSoC5/DAC8B_PM.c **** *
  50:Generated_Source\PSoC5/DAC8B_PM.c **** * Summary:
  51:Generated_Source\PSoC5/DAC8B_PM.c **** *  Restores the current user configuration.
  52:Generated_Source\PSoC5/DAC8B_PM.c **** *
  53:Generated_Source\PSoC5/DAC8B_PM.c **** * Parameters:  
ARM GAS  C:\Users\dmarsch\AppData\Local\Temp\ccofvkPo.s 			page 3


  54:Generated_Source\PSoC5/DAC8B_PM.c **** *  void
  55:Generated_Source\PSoC5/DAC8B_PM.c **** *
  56:Generated_Source\PSoC5/DAC8B_PM.c **** * Return: 
  57:Generated_Source\PSoC5/DAC8B_PM.c **** *  void
  58:Generated_Source\PSoC5/DAC8B_PM.c **** *
  59:Generated_Source\PSoC5/DAC8B_PM.c **** *******************************************************************************/
  60:Generated_Source\PSoC5/DAC8B_PM.c **** void DAC8B_RestoreConfig(void) 
  61:Generated_Source\PSoC5/DAC8B_PM.c **** {
  62              		.loc 1 61 0
  63              		.cfi_startproc
  64              		@ args = 0, pretend = 0, frame = 0
  65              		@ frame_needed = 0, uses_anonymous_args = 0
  66              		@ link register save eliminated.
  62:Generated_Source\PSoC5/DAC8B_PM.c ****     if (!((DAC8B_CR1 & DAC8B_SRC_MASK) == DAC8B_SRC_UDB))
  67              		.loc 1 62 0
  68 0000 0E4B     		ldr	r3, .L8
  69 0002 1B78     		ldrb	r3, [r3]	@ zero_extendqisi2
  70 0004 13F0200F 		tst	r3, #32
  71 0008 16D1     		bne	.L5
  63:Generated_Source\PSoC5/DAC8B_PM.c ****     {
  64:Generated_Source\PSoC5/DAC8B_PM.c ****         if((DAC8B_Strobe & DAC8B_STRB_MASK) == DAC8B_STRB_EN)
  72              		.loc 1 64 0
  73 000a 0D4B     		ldr	r3, .L8+4
  74 000c 1B78     		ldrb	r3, [r3]	@ zero_extendqisi2
  75 000e 13F0080F 		tst	r3, #8
  76 0012 0DD0     		beq	.L7
  65:Generated_Source\PSoC5/DAC8B_PM.c ****         {
  66:Generated_Source\PSoC5/DAC8B_PM.c ****             DAC8B_Strobe &= (uint8)(~DAC8B_STRB_MASK);
  77              		.loc 1 66 0
  78 0014 0A4B     		ldr	r3, .L8+4
  79 0016 1A78     		ldrb	r2, [r3]	@ zero_extendqisi2
  80 0018 02F0F702 		and	r2, r2, #247
  81 001c 1A70     		strb	r2, [r3]
  67:Generated_Source\PSoC5/DAC8B_PM.c ****             DAC8B_Data = DAC8B_backup.data_value;
  82              		.loc 1 67 0
  83 001e 094A     		ldr	r2, .L8+8
  84 0020 5178     		ldrb	r1, [r2, #1]	@ zero_extendqisi2
  85 0022 094A     		ldr	r2, .L8+12
  86 0024 1170     		strb	r1, [r2]
  68:Generated_Source\PSoC5/DAC8B_PM.c ****             DAC8B_Strobe |= DAC8B_STRB_EN;
  87              		.loc 1 68 0
  88 0026 1A78     		ldrb	r2, [r3]	@ zero_extendqisi2
  89 0028 42F00802 		orr	r2, r2, #8
  90 002c 1A70     		strb	r2, [r3]
  91 002e 7047     		bx	lr
  92              	.L7:
  69:Generated_Source\PSoC5/DAC8B_PM.c ****         }
  70:Generated_Source\PSoC5/DAC8B_PM.c ****         else
  71:Generated_Source\PSoC5/DAC8B_PM.c ****         {
  72:Generated_Source\PSoC5/DAC8B_PM.c ****             DAC8B_Data = DAC8B_backup.data_value;
  93              		.loc 1 72 0
  94 0030 044B     		ldr	r3, .L8+8
  95 0032 5A78     		ldrb	r2, [r3, #1]	@ zero_extendqisi2
  96 0034 044B     		ldr	r3, .L8+12
  97 0036 1A70     		strb	r2, [r3]
  98              	.L5:
  99 0038 7047     		bx	lr
ARM GAS  C:\Users\dmarsch\AppData\Local\Temp\ccofvkPo.s 			page 4


 100              	.L9:
 101 003a 00BF     		.align	2
 102              	.L8:
 103 003c 2D580040 		.word	1073764397
 104 0040 9F5A0040 		.word	1073765023
 105 0044 00000000 		.word	.LANCHOR0
 106 0048 835B0040 		.word	1073765251
 107              		.cfi_endproc
 108              	.LFE1:
 109              		.size	DAC8B_RestoreConfig, .-DAC8B_RestoreConfig
 110              		.section	.text.DAC8B_Sleep,"ax",%progbits
 111              		.align	2
 112              		.global	DAC8B_Sleep
 113              		.thumb
 114              		.thumb_func
 115              		.type	DAC8B_Sleep, %function
 116              	DAC8B_Sleep:
 117              	.LFB2:
  73:Generated_Source\PSoC5/DAC8B_PM.c ****         }
  74:Generated_Source\PSoC5/DAC8B_PM.c ****     }
  75:Generated_Source\PSoC5/DAC8B_PM.c **** }
  76:Generated_Source\PSoC5/DAC8B_PM.c **** 
  77:Generated_Source\PSoC5/DAC8B_PM.c **** 
  78:Generated_Source\PSoC5/DAC8B_PM.c **** /*******************************************************************************
  79:Generated_Source\PSoC5/DAC8B_PM.c **** * Function Name: DAC8B_Sleep
  80:Generated_Source\PSoC5/DAC8B_PM.c **** ********************************************************************************
  81:Generated_Source\PSoC5/DAC8B_PM.c **** * Summary:
  82:Generated_Source\PSoC5/DAC8B_PM.c **** *  Stop and Save the user configuration
  83:Generated_Source\PSoC5/DAC8B_PM.c **** *
  84:Generated_Source\PSoC5/DAC8B_PM.c **** * Parameters:  
  85:Generated_Source\PSoC5/DAC8B_PM.c **** *  void:  
  86:Generated_Source\PSoC5/DAC8B_PM.c **** *
  87:Generated_Source\PSoC5/DAC8B_PM.c **** * Return: 
  88:Generated_Source\PSoC5/DAC8B_PM.c **** *  void
  89:Generated_Source\PSoC5/DAC8B_PM.c **** *
  90:Generated_Source\PSoC5/DAC8B_PM.c **** * Global variables:
  91:Generated_Source\PSoC5/DAC8B_PM.c **** *  DAC8B_backup.enableState:  Is modified depending on the enable 
  92:Generated_Source\PSoC5/DAC8B_PM.c **** *  state  of the block before entering sleep mode.
  93:Generated_Source\PSoC5/DAC8B_PM.c **** *
  94:Generated_Source\PSoC5/DAC8B_PM.c **** *******************************************************************************/
  95:Generated_Source\PSoC5/DAC8B_PM.c **** void DAC8B_Sleep(void) 
  96:Generated_Source\PSoC5/DAC8B_PM.c **** {
 118              		.loc 1 96 0
 119              		.cfi_startproc
 120              		@ args = 0, pretend = 0, frame = 0
 121              		@ frame_needed = 0, uses_anonymous_args = 0
 122 0000 08B5     		push	{r3, lr}
 123              		.cfi_def_cfa_offset 8
 124              		.cfi_offset 3, -8
 125              		.cfi_offset 14, -4
  97:Generated_Source\PSoC5/DAC8B_PM.c ****     /* Save VDAC8's enable state */    
  98:Generated_Source\PSoC5/DAC8B_PM.c ****     if(DAC8B_ACT_PWR_EN == (DAC8B_PWRMGR & DAC8B_ACT_PWR_EN))
 126              		.loc 1 98 0
 127 0002 084B     		ldr	r3, .L14
 128 0004 1B78     		ldrb	r3, [r3]	@ zero_extendqisi2
 129 0006 13F0080F 		tst	r3, #8
 130 000a 03D0     		beq	.L11
ARM GAS  C:\Users\dmarsch\AppData\Local\Temp\ccofvkPo.s 			page 5


  99:Generated_Source\PSoC5/DAC8B_PM.c ****     {
 100:Generated_Source\PSoC5/DAC8B_PM.c ****         /* VDAC8 is enabled */
 101:Generated_Source\PSoC5/DAC8B_PM.c ****         DAC8B_backup.enableState = 1u;
 131              		.loc 1 101 0
 132 000c 0122     		movs	r2, #1
 133 000e 064B     		ldr	r3, .L14+4
 134 0010 1A70     		strb	r2, [r3]
 135 0012 02E0     		b	.L12
 136              	.L11:
 102:Generated_Source\PSoC5/DAC8B_PM.c ****     }
 103:Generated_Source\PSoC5/DAC8B_PM.c ****     else
 104:Generated_Source\PSoC5/DAC8B_PM.c ****     {
 105:Generated_Source\PSoC5/DAC8B_PM.c ****         /* VDAC8 is disabled */
 106:Generated_Source\PSoC5/DAC8B_PM.c ****         DAC8B_backup.enableState = 0u;
 137              		.loc 1 106 0
 138 0014 0022     		movs	r2, #0
 139 0016 044B     		ldr	r3, .L14+4
 140 0018 1A70     		strb	r2, [r3]
 141              	.L12:
 107:Generated_Source\PSoC5/DAC8B_PM.c ****     }
 108:Generated_Source\PSoC5/DAC8B_PM.c ****     
 109:Generated_Source\PSoC5/DAC8B_PM.c ****     DAC8B_Stop();
 142              		.loc 1 109 0
 143 001a FFF7FEFF 		bl	DAC8B_Stop
 144              	.LVL0:
 110:Generated_Source\PSoC5/DAC8B_PM.c ****     DAC8B_SaveConfig();
 145              		.loc 1 110 0
 146 001e FFF7FEFF 		bl	DAC8B_SaveConfig
 147              	.LVL1:
 148 0022 08BD     		pop	{r3, pc}
 149              	.L15:
 150              		.align	2
 151              	.L14:
 152 0024 A8430040 		.word	1073759144
 153 0028 00000000 		.word	.LANCHOR0
 154              		.cfi_endproc
 155              	.LFE2:
 156              		.size	DAC8B_Sleep, .-DAC8B_Sleep
 157              		.section	.text.DAC8B_Wakeup,"ax",%progbits
 158              		.align	2
 159              		.global	DAC8B_Wakeup
 160              		.thumb
 161              		.thumb_func
 162              		.type	DAC8B_Wakeup, %function
 163              	DAC8B_Wakeup:
 164              	.LFB3:
 111:Generated_Source\PSoC5/DAC8B_PM.c **** }
 112:Generated_Source\PSoC5/DAC8B_PM.c **** 
 113:Generated_Source\PSoC5/DAC8B_PM.c **** 
 114:Generated_Source\PSoC5/DAC8B_PM.c **** /*******************************************************************************
 115:Generated_Source\PSoC5/DAC8B_PM.c **** * Function Name: DAC8B_Wakeup
 116:Generated_Source\PSoC5/DAC8B_PM.c **** ********************************************************************************
 117:Generated_Source\PSoC5/DAC8B_PM.c **** *
 118:Generated_Source\PSoC5/DAC8B_PM.c **** * Summary:
 119:Generated_Source\PSoC5/DAC8B_PM.c **** *  Restores and enables the user configuration
 120:Generated_Source\PSoC5/DAC8B_PM.c **** *  
 121:Generated_Source\PSoC5/DAC8B_PM.c **** * Parameters:  
ARM GAS  C:\Users\dmarsch\AppData\Local\Temp\ccofvkPo.s 			page 6


 122:Generated_Source\PSoC5/DAC8B_PM.c **** *  void
 123:Generated_Source\PSoC5/DAC8B_PM.c **** *
 124:Generated_Source\PSoC5/DAC8B_PM.c **** * Return: 
 125:Generated_Source\PSoC5/DAC8B_PM.c **** *  void
 126:Generated_Source\PSoC5/DAC8B_PM.c **** *
 127:Generated_Source\PSoC5/DAC8B_PM.c **** * Global variables:
 128:Generated_Source\PSoC5/DAC8B_PM.c **** *  DAC8B_backup.enableState:  Is used to restore the enable state of 
 129:Generated_Source\PSoC5/DAC8B_PM.c **** *  block on wakeup from sleep mode.
 130:Generated_Source\PSoC5/DAC8B_PM.c **** *
 131:Generated_Source\PSoC5/DAC8B_PM.c **** *******************************************************************************/
 132:Generated_Source\PSoC5/DAC8B_PM.c **** void DAC8B_Wakeup(void) 
 133:Generated_Source\PSoC5/DAC8B_PM.c **** {
 165              		.loc 1 133 0
 166              		.cfi_startproc
 167              		@ args = 0, pretend = 0, frame = 0
 168              		@ frame_needed = 0, uses_anonymous_args = 0
 169 0000 08B5     		push	{r3, lr}
 170              		.cfi_def_cfa_offset 8
 171              		.cfi_offset 3, -8
 172              		.cfi_offset 14, -4
 134:Generated_Source\PSoC5/DAC8B_PM.c ****     DAC8B_RestoreConfig();
 173              		.loc 1 134 0
 174 0002 FFF7FEFF 		bl	DAC8B_RestoreConfig
 175              	.LVL2:
 135:Generated_Source\PSoC5/DAC8B_PM.c ****     
 136:Generated_Source\PSoC5/DAC8B_PM.c ****     if(DAC8B_backup.enableState == 1u)
 176              		.loc 1 136 0
 177 0006 054B     		ldr	r3, .L19
 178 0008 1B78     		ldrb	r3, [r3]	@ zero_extendqisi2
 179 000a 012B     		cmp	r3, #1
 180 000c 05D1     		bne	.L16
 137:Generated_Source\PSoC5/DAC8B_PM.c ****     {
 138:Generated_Source\PSoC5/DAC8B_PM.c ****         /* Enable VDAC8's operation */
 139:Generated_Source\PSoC5/DAC8B_PM.c ****         DAC8B_Enable();
 181              		.loc 1 139 0
 182 000e FFF7FEFF 		bl	DAC8B_Enable
 183              	.LVL3:
 140:Generated_Source\PSoC5/DAC8B_PM.c **** 
 141:Generated_Source\PSoC5/DAC8B_PM.c ****         /* Restore the data register */
 142:Generated_Source\PSoC5/DAC8B_PM.c ****         DAC8B_SetValue(DAC8B_Data);
 184              		.loc 1 142 0
 185 0012 034B     		ldr	r3, .L19+4
 186 0014 1878     		ldrb	r0, [r3]	@ zero_extendqisi2
 187 0016 FFF7FEFF 		bl	DAC8B_SetValue
 188              	.LVL4:
 189              	.L16:
 190 001a 08BD     		pop	{r3, pc}
 191              	.L20:
 192              		.align	2
 193              	.L19:
 194 001c 00000000 		.word	.LANCHOR0
 195 0020 835B0040 		.word	1073765251
 196              		.cfi_endproc
 197              	.LFE3:
 198              		.size	DAC8B_Wakeup, .-DAC8B_Wakeup
 199              		.bss
 200              		.align	2
ARM GAS  C:\Users\dmarsch\AppData\Local\Temp\ccofvkPo.s 			page 7


 201              		.set	.LANCHOR0,. + 0
 202              		.type	DAC8B_backup, %object
 203              		.size	DAC8B_backup, 2
 204              	DAC8B_backup:
 205 0000 0000     		.space	2
 206              		.text
 207              	.Letext0:
 208              		.file 2 "Generated_Source\\PSoC5\\cytypes.h"
 209              		.file 3 "Generated_Source\\PSoC5\\DAC8B.h"
